:020000040800F2
:100000000028002019090008290800082F08000806
:10001000350800083B0800084108000800000000FF
:100020000000000000000000000000004708000879
:1000300053080008000000005F0800086B08000873
:1000400061090008610900086109000861090008E8
:1000500061090008610900086109000861090008D8
:1000600061090008610900086109000861090008C8
:1000700061090008610900086109000861090008B8
:1000800061090008610900086109000861090008A8
:100090006109000861090008610900086109000898
:1000A0006109000861090008610900086109000888
:1000B00079080008610900080000000061090008D3
:1000C000610900080000000000000000610900084C
:1000D00000000000610900088D0800080000000011
:1000E00061090008610900086109000800000000BA
:1000F0000000000000000000000000000000000000
:0C01000000000000000000005FF808F1A3
:10010C0010B5054C237833B9044B13B10448AFF345
:10011C0000800123237010BD1C0000200000000093
:10012C000034000808B5034B1BB103490348AFF377
:10013C00008008BD000000002000002000340008F2
:10014C0080B483B000AF354B1B78002B02D0012B51
:10015C0032D05DE0324B1B78232B56D1314B1B78C0
:10016C00053B3B712F4B1B78043BFB702D4B1B78D5
:10017C00033BBB702B4B1B78023B7B703B792A4AB1
:10018C00D35C212B41D1FB78274AD35C522B3CD139
:10019C00BB78254AD35C532B37D17B78224AD35C6E
:1001AC00542B32D1214B01221A70214B00221A7090
:1001BC001A4B01221A7028E0194B1B78232B26D1DD
:1001CC00184B1B78043BFB71164B1B78033BBB7124
:1001DC00144B1B78023B7B71FB79134AD35C212BAC
:1001EC0015D1BB79104AD35C4F2B10D17B790E4AB9
:1001FC00D35C4B2B0BD10D4B00221A700C4B0122F4
:10020C001A70064B00221A7001E000BF00E000BF1C
:10021C0000BF0C37BD4680BC704700BF5B000020A0
:10022C0038000020390000203C0000205C00002039
:10023C000000002080B400AF024B1B781846BD466E
:10024C0080BC70475C00002080B400AF024B1B7870
:10025C001846BD4680BC70470000002080B582B0B7
:10026C0000AF78607B681B68134A93421FD132231E
:10027C0001221249124802F04AFB124B1B785A1CFD
:10028C00D1B2104A11701A460C4B19780E4B995476
:10029C000C4B1B781E2B02D10A4B00221A700B4BF5
:1002AC0001221A7001220549054802F0C2FB00BF69
:1002BC000837BD4680BD00BF004400403800002018
:1002CC00D8000020390000203C0000205A000020FB
:1002DC0080B500AF00F040FB00F02EF800F030F9D4
:1002EC0000F07AF800F002F900F0B4F80D4801F0D3
:1002FC002DFF4FF47A7000F0D3FA0B4800F066FC37
:10030C0001220A490A4802F094FB0A4B1B78002B85
:10031C0004D0FFF715FF074B00221A7000F052F9BA
:10032C00F3E700BF900000206000002038000020A0
:10033C00D80000205A00002080B594B000AF07F11F
:10034C00280328220021184603F00AF807F11403A9
:10035C0000221A605A609A60DA601A613B1D002212
:10036C001A605A609A60DA600223BB620123BB6395
:10037C001023FB6300237B6407F12803184601F06C
:10038C00C5F90346002B01D000F016F90F237B6151
:10039C000023BB610023FB6100233B6200237B62D3
:1003AC0007F114030021184601F032FC0346002B20
:1003BC0001D000F001F902237B600023FB603B1DA0
:1003CC00184601F0BDFD0346002B01D000F0F4F8F7
:1003DC0000BF5037BD4680BD80B584B000AF3B1D1B
:1003EC0000221A605A609A60184B194A1A60174B0F
:1003FC0000229A60154B01221A73144B00221A75B5
:10040C00124B4FF46022DA61104B00225A600F4BF2
:10041C0001221A610D4800F001FB0346002B01D0AC
:10042C0000F0CAF800237B600123BB600023FB6053
:10043C003B1D1946054800F083FC0346002B01D0F8
:10044C0000F0BAF800BF1037BD4680BD6000002038
:10045C000024014080B586B000AF07F108030022EC
:10046C001A605A609A60DA603B4600221A605A6041
:10047C001D4B4FF080421A601B4B41F63F725A6085
:10048C00194B00229A60184B0922DA60164B002295
:10049C001A61154B00229A61134801F007FE0346BE
:1004AC00002B01D000F088F84FF48053BB6007F1AB
:1004BC00080319460C4801F09DFF0346002B01D0A0
:1004CC0000F07AF800233B6000237B603B46194622
:1004DC00054802F065F90346002B01D000F06CF8DA
:1004EC0000BF1837BD4680BD9000002080B500AF1E
:1004FC00114B124A1A60104B4FF416525A600E4BA5
:10050C0000229A600C4B0022DA600B4B00221A611D
:10051C00094B0C225A61084B00229A61064B0022AF
:10052C00DA61054802F0A6F90346002B01D000F071
:10053C0043F800BF80BD00BFD8000020004400403D
:10054C0080B586B000AF07F1080300221A605A602C
:10055C009A60DA60114B9B69104A43F00403936173
:10056C000E4B9B6903F004037B607B680022202107
:10057C000B4801F0B3F82023BB600123FB60002380
:10058C003B6102237B6107F108031946044800F024
:10059C0029FF00BF1837BD4680BD00BF00100240C8
:1005AC000008014080B582B000AF786000F094F98B
:1005BC0000BF0837BD4680BD80B400AF72B600BF27
:1005CC00FEE7000080B500AF224B1B78002B02D059
:1005DC00012B19D03CE0FFF72DFE0346002B36D043
:1005EC001D4800F0A1FB03461C4A13601B4B1B6803
:1005FC000A221B49184602F0B1FE1A4B01221A605E
:10060C00144B01221A7022E0164B1B68002B16D0DB
:10061C003C2306221449154802F079F94FF49673DD
:10062C001E220F49114802F072F9282304221049A6
:10063C000E4802F06CF940F6B83000F031F9054B79
:10064C0000221A70FFF700FE0346002B00E000BFEB
:10065C0000BF80BD1C010020600000202001002094
:10066C00240100204401002004000020D8000020B8
:10067C000C00002080B483B000AF0E4B9B690D4A78
:10068C0043F0010393610B4B9B6903F001037B6007
:10069C007B68084BDB69074A43F08053D361054BF9
:1006AC00DB6903F080533B603B6800BF0C37BD46F1
:1006BC0080BC70470010024080B588B000AF7860F5
:1006CC0007F1100300221A605A609A60DA607B68A6
:1006DC001B68144A934221D1134B9B69124A43F471
:1006EC0000739361104B9B6903F40073FB60FB6810
:1006FC000D4B9B690C4A43F0040393610A4B9B69B5
:10070C0003F00403BB60BB6801233B6103237B61E3
:10071C0007F110031946054800F064FE00BF2037AE
:10072C00BD4680BD0024014000100240000801407D
:10073C0080B584B000AF78607B681B68B3F1804FE4
:10074C0013D10C4BDB690B4A43F00103D361094B0A
:10075C00DB6903F00103FB60FB68002200211C2015
:10076C0000F059FD1C2000F072FD00BF1037BD4693
:10077C0080BD00BF0010024080B588B000AF78602B
:10078C0007F1100300221A605A609A60DA607B68E5
:10079C001B681F4A934237D11E4BDB691D4A43F439
:1007AC000033D3611B4BDB6903F40033FB60FB6844
:1007BC00184B9B69174A43F004039361154B9B69D3
:1007CC0003F00403BB60BB6804233B6102237B6121
:1007DC000323FB6107F1100319460F4800F002FEDA
:1007EC0008233B6100237B610023BB6107F11003ED
:1007FC001946094800F0F6FD00220021262000F0E1
:10080C000AFD262000F023FD00BF2037BD4680BD29
:10081C0000440040001002400008014080B400AFCA
:10082C00FEE780B400AFFEE780B400AFFEE780B413
:10083C0000AFFEE780B400AFFEE780B400AF00BFAE
:10084C00BD4680BC704780B400AF00BFBD4680BCC5
:10085C00704780B400AF00BFBD4680BC704780B508
:10086C0000AF00F0BFF800BF80BD000080B500AF46
:10087C00024801F0B7FC00BF80BD00BF9000002013
:10088C0080B500AF024802F005F900BF80BD00BF83
:10089C00D800002080B400AF00BFBD4680BC7047BC
:1008AC0080B483B000AF78607B68084A82FB031287
:1008BC009210DB17D31A064A1360064B00221A60FB
:1008CC0000BF0C37BD4680BC704700BF67666666CC
:1008DC00480100204401002080B400AF094B1B6884
:1008EC00002B0BDD074B1B68013B064A1360054BC5
:1008FC001B68002B02D1044B01221A6000BFBD46BD
:10090C0080BC704748010020440100200C480D4970
:10091C000D4A002302E0D458C4500433C4188C424E
:10092C00F9D30A4A0A4C002301E013600432A242B4
:10093C00FBD3FFF7AFFF02F0D5FCFFF7C9FC704704
:10094C00000000201C000020703400081C00002057
:10095C0050010020FEE7000080B500AF084B1B687B
:10096C00074A43F010031360032000F049FC0F20EA
:10097C0000F008F8FFF77EFE0023184680BD00BF8C
:10098C000020024080B582B000AF7860124B1A682C
:10099C00124B1B7819464FF47A73B3FBF1F3B2FB8D
:1009AC00F3F3184600F061FC0346002B01D0012341
:1009BC000EE07B680F2B0AD8002279684FF0FF30CD
:1009CC0000F029FC064A7B681360002300E0012339
:1009DC0018460837BD4680BD1000002018000020C6
:1009EC001400002080B400AF054B1B781A46054B51
:1009FC001B681344034A136000BFBD4680BC70479C
:100A0C00180000204C01002080B400AF024B1B6882
:100A1C001846BD4680BC70474C01002080B586B09E
:100A2C0000AF78600023FB7500233B610023BB60A3
:100A3C000023FB607B68002B01D10123BEE07B68A7
:100A4C009B68002B7B689B6A002B09D17B6800227A
:100A5C00DA627B68002283F824207868FFF72CFE8A
:100A6C00786800F0BFFA0346FB757B689B6A03F05D
:100A7C001003002B40F09980FB7D002B40F09580FB
:100A8C007B689B6A23F4885323F0020343F0020231
:100A9C007B689A627B685A687B68DB691A437B685F
:100AAC001B7B5B001343BA681343BB607B689B687A
:100ABC00B3F5807F03D07B689B68012B02D14FF488
:100ACC00807300E000233A6913433B617B681B7D14
:100ADC00012B19D17B681B7B002B09D17B689B698F
:100AEC00013B5A033B69134343F400633B610BE046
:100AFC007B689B6A43F020027B689A627B68DB6AA6
:100B0C0043F001027B68DA627B681B685B6823F444
:100B1C0069417B681B683A690A435A607B681B68A9
:100B2C009A68284B13407A681268B9680B43936033
:100B3C007B689B68B3F5807F03D07B689B68012B37
:100B4C0004D17B681B69013B1B05FB607B681B6840
:100B5C00DB6A23F470017B681B68FA680A43DA626B
:100B6C007B681B689A68184B1340BA689A420BD181
:100B7C007B680022DA627B689B6A23F0030343F0F4
:100B8C0001027B689A6218E07B689B6A23F012036F
:100B9C0043F010027B689A627B68DB6A43F00102C7
:100BAC007B68DA620123FB7507E07B689B6A43F084
:100BBC0010027B689A620123FB75FB7D184618377F
:100BCC00BD4680BDFDF7E1FFFE0E1FFF80B584B072
:100BDC0000AF78600023FB737B6893F82430012B03
:100BEC0001D1022398E07B68012283F824207868E5
:100BFC0000F09EF90346FB73FB7B002B40F08780D3
:100C0C007B689B6A23F4407323F0010343F48072E6
:100C1C007B689A627B681B68414A934205D1414BC1
:100C2C005B6803F47023002B15D17B689B6A23F45B
:100C3C0080127B689A627B681B685B6803F4806334
:100C4C00002B26D07B689B6A23F4405343F48052DC
:100C5C007B689A621DE07B689B6A43F480127B6818
:100C6C009A627B681B682F4A934204D07B681B688E
:100C7C002B4A93420DD12B4B5B6803F48063002B02
:100C8C0007D07B689B6A23F4405343F480527B6803
:100C9C009A627B689B6A03F48053002B06D07B68B6
:100CAC00DB6A23F006027B68DA6202E07B680022D2
:100CBC00DA627B68002283F824207B681B686FF063
:100CCC0002021A607B681B689B6803F46023B3F50F
:100CDC00602F13D17B681B68114A934205D1114BCD
:100CEC005B6803F47023002B08D17B681B689A683F
:100CFC007B681B6842F4A0029A600CE07B681B685E
:100D0C009A687B681B6842F480129A6003E07B68E7
:100D1C00002283F82420FB7B18461037BD4680BD8B
:100D2C00002801400024014080B483B000AF7860FB
:100D3C007B681B68DB6C18460C37BD4680BC704763
:100D4C0080B485B000AF786039600023FB7300235A
:100D5C00BB607B6893F82430012B01D10223DCE0CB
:100D6C007B68012283F824203B685B68062B1CD827
:100D7C007B681B68596B3B685A6813469B0013448D
:100D8C00053B1F2202FA03F3DB4319403B6818684A
:100D9C003B685A6813469B001344053B00FA03F268
:100DAC007B681B680A435A633CE03B685B680C2B0E
:100DBC001CD87B681B68196B3B685A6813469B00F0
:100DCC001344233B1F2202FA03F3DB4319403B6815
:100DDC0018683B685A6813469B001344233B00FA7F
:100DEC0003F27B681B680A431A631BE07B681B6871
:100DFC00D96A3B685A6813469B001344413B1F2237
:100E0C0002FA03F3DB4319403B6818683B685A68E5
:100E1C0013469B001344413B00FA03F27B681B68AA
:100E2C000A43DA623B681B68092B1CD97B681B6878
:100E3C00D9683B681A6813465B0013441E3B0722B3
:100E4C0002FA03F3DB4319403B6898683B681A6865
:100E5C0013465B0013441E3B00FA03F27B681B68CD
:100E6C000A43DA6019E07B681B6819693B681A68E9
:100E7C0013465B001344072202FA03F3DB431940C9
:100E8C003B6898683B681A6813465B00134400FA89
:100E9C0003F27B681B680A431A613B681B68102BC2
:100EAC0003D03B681B68112B32D17B681B681D4A31
:100EBC00934225D17B681B689B6803F40003002BCD
:100ECC0026D17B681B689A687B681B6842F4000219
:100EDC009A603B681B68102B1AD1134B1B68134A82
:100EEC00A2FB03239A0C13469B0013445B00BB60CC
:100EFC0002E0BB68013BBB60BB68002BF9D107E08B
:100F0C007B689B6A43F020027B689A620123FB7327
:100F1C007B68002283F82420FB7B18461437BD46DF
:100F2C0080BC7047002401401000002083DE1B436E
:100F3C0080B584B000AF78600023FB600023BB60F9
:100F4C007B681B689B6803F00103012B40D07B6816
:100F5C001B689A687B681B6842F001029A601F4B01
:100F6C001B681F4AA2FB03239B0CBB6002E0BB68FF
:100F7C00013BBB60BB68002BF9D1FFF745FDF86066
:100F8C001FE0FFF741FD0246FB68D31A022B18D96C
:100F9C007B681B689B6803F00103012B11D07B68F5
:100FAC009B6A43F010027B689A627B68DB6A43F0B1
:100FBC0001027B68DA627B68002283F8242001231B
:100FCC0007E07B681B689B6803F00103012BD8D1F9
:100FDC00002318461037BD4680BD00BF100000200E
:100FEC0083DE1B4380B584B000AF78600023FB60C8
:100FFC007B681B689B6803F00103012B2ED17B6877
:10100C001B689A687B681B6822F001029A60FFF7E4
:10101C00FBFCF8601BE0FFF7F7FC0246FB68D31AF9
:10102C00022B14D97B681B689B6803F00103012B0E
:10103C000DD17B689B6A43F010027B689A627B68D7
:10104C00DB6A43F001027B68DA62012307E07B680C
:10105C001B689B6803F00103012BDCD000231846AE
:10106C001037BD4680BD000080B485B000AF7860FD
:10107C007B6803F00703FB600C4BDB68BB60BA6852
:10108C004FF6FF031340BB60FB681A02BB681343A7
:10109C0043F0BF6343F40033BB60044ABB68D360C6
:1010AC0000BF1437BD4680BC704700BF00ED00E0A8
:1010BC0080B400AF044BDB681B0A03F0070318462F
:1010CC00BD4680BC704700BF00ED00E080B483B02B
:1010DC0000AF0346FB7197F90730002B0BDBFB7954
:1010EC0003F01F02064997F907305B09012000FA4B
:1010FC0002F241F8232000BF0C37BD4680BC70477C
:10110C0000E100E080B483B000AF03463960FB71AE
:10111C0097F90730002B0ADB3B68DAB20C4997F9D8
:10112C0007301201D2B20B4483F800230AE03B686B
:10113C00DAB20849FB7903F00F03043B1201D2B277
:10114C000B441A7600BF0C37BD4680BC704700BFFD
:10115C0000E100E000ED00E080B489B000AFF86081
:10116C00B9607A60FB6803F00703FB61FB69C3F1AC
:10117C000703042B28BF0423BB61FB690433062B34
:10118C0002D9FB69033B00E000237B614FF0FF3287
:10119C00BB6902FA03F3DA43BB681A407B699A40D5
:1011AC004FF0FF317B6901FA03F3D9437B680B40A5
:1011BC00134318462437BD4680BC704780B582B0B7
:1011CC0000AF78607B68013BB3F1807F01D30123D2
:1011DC000FE00A4A7B68013B53600F214FF0FF3050
:1011EC00FFF790FF054B00229A60044B07221A6010
:1011FC00002318460837BD4680BD00BF10E000E054
:10120C0080B582B000AF78607868FFF72DFF00BF23
:10121C000837BD4680BD80B586B000AF0346B960C7
:10122C007A60FB7300237B61FFF742FF78617A6879
:10123C00B9687869FFF790FF024697F90F301146AD
:10124C001846FFF75FFF00BF1837BD4680BD80B55D
:10125C0082B000AF0346FB7197F907301846FFF7D1
:10126C0035FF00BF0837BD4680BD80B582B000AFEA
:10127C0078607868FFF7A2FF034618460837BD462A
:10128C0080BD80B485B000AF78600023FB737B68B1
:10129C0093F82130022B08D07B6804229A637B6878
:1012AC00002283F82020012320E07B681B681A6849
:1012BC007B681B6822F00E021A607B681B681A6838
:1012CC007B681B6822F001021A607B681A6C7B68D1
:1012DC00DB6B012101FA02F25A607B68012283F870
:1012EC0021207B68002283F82020FB7B18461437D2
:1012FC00BD4680BC7047000080B584B000AF7860FC
:10130C000023FB737B6893F82130022B05D07B689C
:10131C0004229A630123FB7351E07B681B681A68F3
:10132C007B681B6822F00E021A607B681B681A68C7
:10133C007B681B6822F001021A607B681B68224ADA
:10134C00934229D07B681B68204A934222D07B6849
:10135C001B681F4A93421AD07B681B681D4A934234
:10136C0012D07B681B681C4A93420AD07B681B68AE
:10137C001A4A934202D14FF480130EE04FF080735F
:10138C000BE04FF4803308E04FF4805305E04FF44A
:10139C00807302E0102300E00123114A53607B6844
:1013AC00012283F821207B68002283F820207B68AF
:1013BC005B6B002B03D07B685B6B78689847FB7B7F
:1013CC0018461037BD4680BD080002401C00024084
:1013DC003000024044000240580002406C000240C1
:1013EC000000024080B48BB000AF786039600023FD
:1013FC007B6200233B6261E101227B6A02FA03F308
:10140C00FB613B681B68FA691340BB61BA69FB69F5
:10141C009A4240F050813B685B68974A93425ED099
:10142C00954A934275D8954A934258D0934A934221
:10143C006FD8934A934252D0914A934269D8914AB9
:10144C0093424CD08F4A934263D88F4A934246D0F2
:10145C008D4A93425DD8122B2AD8122B59D801A24F
:10146C0052F823F0EB140008C5140008D714000838
:10147C00191500081F1500081F1500081F15000876
:10148C001F1500081F1500081F1500081F15000860
:10149C001F1500081F1500081F1500081F15000850
:1014AC001F1500081F150008CD140008E1140008D2
:1014BC00764A934213D02CE03B68DB683B6229E010
:1014CC003B68DB6804333B6224E03B68DB68083331
:1014DC003B621FE03B68DB680C333B621AE03B6805
:1014EC009B68002B02D104233B6213E03B689B6892
:1014FC00012B05D108233B627B68FA691A6109E06C
:10150C0008233B627B68FA695A6103E000233B6263
:10151C0000E000BFBB69FF2B01D87B6801E07B6852
:10152C0004337B61BB69FF2B02D87B6A9B0002E012
:10153C007B6A083B9B003B617B691A680F213B6906
:10154C0001FA03F3DB431A40396A3B6901FA03F3EE
:10155C001A437B691A603B685B6803F08053002B6D
:10156C0000F0A9804A4B9B69494A43F001039361FF
:10157C00474B9B6903F00103BB60BB68454A7B6A20
:10158C009B08023352F82330FB607B6A03F00303A1
:10159C009B000F2202FA03F3DB43FA681340FB6053
:1015AC007B683D4A93420DD07B683C4A934207D0FE
:1015BC007B683B4A934201D1022304E0032302E0FF
:1015CC00012300E000237A6A02F0030292009340A8
:1015DC00FA681343FB602F497B6A9B080233FA6855
:1015EC0041F823203B685B6803F48033002B06D062
:1015FC002C4B1A682B49BB6913430B6006E0294B33
:10160C001A68BB69DB43274913400B603B685B6876
:10161C0003F40033002B06D0224B5A682149BB69D6
:10162C0013434B6006E01F4B5A68BB69DB431D49F3
:10163C0013404B603B685B6803F48013002B06D0AF
:10164C00184B9A681749BB6913438B6006E0154B1E
:10165C009A68BB69DB43134913408B603B685B683A
:10166C0003F40013002B1FD00E4BDA680D49BB6935
:10167C001343CB601FE000BF00003210000031109C
:10168C0000002210000021100000121000001110A8
:10169C00001002400000014000080140000C014015
:1016AC0000100140000401400B4BDA68BB69DB43BE
:1016BC0009491340CB607B6A01337B623B681A6833
:1016CC007B6A22FA03F3002B7FF496AE00BF00BFB7
:1016DC002C37BD4680BC70470004014080B483B0F9
:1016EC0000AF78600B467B8013467B707B78002BB9
:1016FC0003D07A887B681A6103E07B881A047B68C4
:10170C001A6100BF0C37BD4680BC704780B586B0EF
:10171C0000AF78607B68002B01D1012372E27B68FB
:10172C001B6803F00103002B00F08780924B5B6871
:10173C0003F00C03042B0CD08F4B5B6803F00C03F1
:10174C00082B12D18C4B5B6803F48033B3F5803FCC
:10175C000BD1894B1B6803F40033002B6CD07B68D6
:10176C005B68002B68D101234CE27B685B68B3F5A6
:10177C00803F06D1804B1B687F4A43F48033136053
:10178C002EE07B685B68002B0CD17B4B1B687A4A84
:10179C0023F480331360784B1B68774A23F480233F
:1017AC0013601DE07B685B68B3F5A02F0CD1724B06
:1017BC001B68714A43F4802313606F4B1B686E4A9D
:1017CC0043F4803313600BE06B4B1B686A4A23F4C1
:1017DC0080331360684B1B68674A23F480231360C3
:1017EC007B685B68002B13D0FFF70EF9386108E0BB
:1017FC00FFF70AF902463B69D31A642B01D903237C
:10180C0000E25D4B1B6803F40033002BF0D014E0B6
:10181C00FFF7FAF8386108E0FFF7F6F802463B6983
:10182C00D31A642B01D90323ECE1534B1B6803F44B
:10183C000033002BF0D100E000BF7B681B6803F085
:10184C000203002B63D04C4B5B6803F00C03002BA2
:10185C000BD0494B5B6803F00C03082B1CD1464B97
:10186C005B6803F48033002B16D1434B1B6803F0E9
:10187C000203002B05D07B681B69012B01D00123CF
:10188C00C0E13D4B1B6823F0F8027B685B69DB0011
:10189C00394913430B603AE07B681B69002B20D05D
:1018AC00364B01221A60FFF7AFF8386108E0FFF7FA
:1018BC00ABF802463B69D31A022B01D90323A1E1F1
:1018CC002D4B1B6803F00203002BF0D02A4B1B6836
:1018DC0023F0F8027B685B69DB00274913430B603C
:1018EC0015E0264B00221A60FFF78EF8386108E0ED
:1018FC00FFF78AF802463B69D31A022B01D903235E
:10190C0080E11D4B1B6803F00203002BF0D17B68B8
:10191C001B6803F00803002B3AD07B689B69002BF3
:10192C0019D0174B01221A60FFF76EF8386108E0E6
:10193C00FFF76AF802463B69D31A022B01D903233D
:10194C0060E10D4B5B6A03F00203002BF0D0012029
:10195C0000F0D8FA1CE00A4B00221A60FFF754F88A
:10196C0038610FE0FFF750F802463B69D31A022B9F
:10197C0008D9032346E100BF001002400000424298
:10198C0080044242924B5B6A03F00203002BE9D1C4
:10199C007B681B6803F00403002B00F0A680002377
:1019AC00FB758B4BDB6903F08053002B0DD1884BFF
:1019BC00DB69874A43F08053D361854BDB6903F0C5
:1019CC008053BB60BB680123FB75824B1B6803F41F
:1019DC008073002B18D17F4B1B687E4A43F48073B5
:1019EC001360FFF711F8386108E0FFF70DF80246B5
:1019FC003B69D31A642B01D9032303E1754B1B6894
:101A0C0003F48073002BF0D07B68DB68012B06D1CC
:101A1C006F4B1B6A6E4A43F0010313622DE07B6827
:101A2C00DB68002B0CD16A4B1B6A694A23F001035B
:101A3C001362674B1B6A664A23F0040313621CE0B3
:101A4C007B68DB68052B0CD1614B1B6A604A43F049
:101A5C00040313625E4B1B6A5D4A43F0010313627D
:101A6C000BE05B4B1B6A5A4A23F001031362584B81
:101A7C001B6A574A23F0040313627B68DB68002B54
:101A8C0015D0FEF7C1FF38610AE0FEF7BDFF024634
:101A9C003B69D31A41F28832934201D90323B1E056
:101AAC004B4B1B6A03F00203002BEED014E0FEF745
:101ABC00ABFF38610AE0FEF7A7FF02463B69D31A79
:101ACC0041F28832934201D903239BE0404B1B6ABD
:101ADC0003F00203002BEED1FB7D012B05D13C4B17
:101AEC00DB693B4A23F08053D3617B68DB69002BB5
:101AFC0000F08780364B5B6803F00C03082B61D039
:101B0C007B68DB69022B46D1334B00221A60FEF74F
:101B1C007BFF386108E0FEF777FF02463B69D31A7A
:101B2C00022B01D903236DE0294B1B6803F00073D2
:101B3C00002BF0D17B681B6AB3F5803F08D1244B96
:101B4C005B6823F400327B689B68214913434B602C
:101B5C001F4B5B6823F474127B68196A7B685B6AA1
:101B6C000B431B4913434B601B4B01221A60FEF7BE
:101B7C004BFF386108E0FEF747FF02463B69D31A7A
:101B8C00022B01D903233DE0114B1B6803F00073BA
:101B9C00002BF0D035E0104B00221A60FEF734FF1A
:101BAC00386108E0FEF730FF02463B69D31A022B7E
:101BBC0001D9032326E0064B1B6803F00073002BAE
:101BCC00F0D11EE07B68DB69012B07D1012319E002
:101BDC000010024000700040600042420B4B5B68FA
:101BEC00FB60FB6803F480327B681B6A9A4206D167
:101BFC00FB6803F470127B685B6A9A4201D0012384
:101C0C0000E0002318461837BD4680BD0010024086
:101C1C0080B584B000AF786039607B68002B01D14F
:101C2C000123D0E06A4B1B6803F007033A689A4221
:101C3C0010D9674B1B6823F0070265493B681343B7
:101C4C000B60634B1B6803F007033A689A4201D0A0
:101C5C000123B8E07B681B6803F00203002B20D043
:101C6C007B681B6803F00403002B05D0594B5B68A1
:101C7C00584A43F4E06353607B681B6803F0080325
:101C8C00002B05D0534B5B68524A43F460535360AE
:101C9C00504B5B6823F0F0027B689B684D49134303
:101CAC004B607B681B6803F00103002B40D07B6802
:101CBC005B68012B07D1474B1B6803F40033002BE7
:101CCC0015D101237FE07B685B68022B07D1414B68
:101CDC001B6803F00073002B09D1012373E03D4B0B
:101CEC001B6803F00203002B01D101236BE0394B7D
:101CFC005B6823F003027B685B68364913434B60D7
:101D0C00FEF782FEF8600AE0FEF77EFE0246FB68F4
:101D1C00D31A41F28832934201D9032353E02D4B5D
:101D2C005B6803F00C027B685B689B009A42EBD10A
:101D3C00274B1B6803F007033A689A4210D2244BD6
:101D4C001B6823F0070222493B6813430B60204BAE
:101D5C001B6803F007033A689A4201D0012332E072
:101D6C007B681B6803F00403002B08D0194B5B68DD
:101D7C0023F4E0627B68DB68164913434B607B6895
:101D8C001B6803F00803002B09D0124B5B6823F48B
:101D9C0060527B681B69DB000E4913434B6000F0FB
:101DAC0021F802460B4B5B681B0903F00F030A4931
:101DBC00CB5C22FA03F3094A1360094B1B681846E3
:101DCC00FEF7E0FD002318461037BD4680BD00BF6E
:101DDC0000200240001002402834000810000020AF
:101DEC001400002090B48AB000AF294B3C1D0FCBDF
:101DFC0084E80F0040F201233B800023FB610023A9
:101E0C00BB6100237B6200237B6100233B62214B7F
:101E1C005B68FB61FB6903F00C03042B02D0082BFD
:101E2C0003D02BE01C4B3B622BE0FB699B0C03F0BB
:101E3C000F0328333B4413F8243C7B61FB6903F408
:101E4C008033002B12D0134B5B685B0C03F0010347
:101E5C0028333B4413F8283CBB617B690E4A03FBD7
:101E6C0002F2BB69B2FBF3F37B6204E07B690B4AC1
:101E7C0002FB03F37B627B6A3B6202E0064B3B6234
:101E8C0000BF3B6A18462837BD4690BC704700BF60
:101E9C00183400080010024000127A0000093D00BE
:101EAC0080B400AF024B1B681846BD4680BC70471F
:101EBC001000002080B500AFFFF7F2FF0246054B83
:101ECC005B681B0A03F007030349CB5C22FA03F39C
:101EDC00184680BD001002403834000880B500AFB1
:101EEC00FFF7DEFF0246054B5B68DB0A03F00703D6
:101EFC000349CB5C22FA03F3184680BD0010024064
:101F0C003834000880B485B000AF78600A4B1B6889
:101F1C000A4AA2FB03235B0A7A6802FB03F3FB6009
:101F2C0000BFFB685A1EFA60002BF9D100BF00BF3E
:101F3C001437BD4680BC704710000020D34D621092
:101F4C0080B586B000AF786000233B610023FB6056
:101F5C007B681B6803F00103002B7DD00023FB750D
:101F6C004F4BDB6903F08053002B0DD14C4BDB69DD
:101F7C004B4A43F08053D361494BDB6903F08053E8
:101F8C00BB60BB680123FB75464B1B6803F4807375
:101F9C00002B18D1434B1B68424A43F480731360E7
:101FAC00FEF732FD386108E0FEF72EFD02463B6974
:101FBC00D31A642B01D903236DE03A4B1B6803F44D
:101FCC008073002BF0D0364B1B6A03F44073FB601C
:101FDC00FB68002B2ED07B685B6803F44073FA68B7
:101FEC009A4227D02E4B1B6A23F44073FB602E4B76
:101FFC0001221A602C4B00221A60294AFB681362DA
:10200C00FB6803F00103002B14D0FEF7FDFC3861D4
:10201C000AE0FEF7F9FC02463B69D31A41F288321A
:10202C00934201D9032336E01D4B1B6A03F00203D4
:10203C00002BEED01A4B1B6A23F440727B685B6852
:10204C00174913430B62FB7D012B05D1144BDB6944
:10205C00134A23F08053D3617B681B6803F002039F
:10206C00002B08D00E4B5B6823F440427B689B68C6
:10207C000B4913434B607B681B6803F01003002B68
:10208C0008D0074B5B6823F480027B68DB6804494B
:10209C0013434B60002318461837BD4680BD00BF64
:1020AC0000100240007000404004424280B582B0F3
:1020BC0000AF78607B68002B01D1012341E07B6885
:1020CC0093F83D30DBB2002B06D17B68002283F8FD
:1020DC003C207868FEF72CFB7B68022283F83D20BD
:1020EC007B681A687B6804331946104600F06AFA5C
:1020FC007B68012283F846207B68012283F83E200E
:10210C007B68012283F83F207B68012283F8402002
:10211C007B68012283F841207B68012283F84220EE
:10212C007B68012283F843207B68012283F84420DA
:10213C007B68012283F845207B68012283F83D20CF
:10214C00002318460837BD4680BD000080B485B01A
:10215C0000AF78607B6893F83D30DBB2012B01D087
:10216C00012335E07B68022283F83D207B681B68E5
:10217C00DA687B681B6842F00102DA607B681B68D6
:10218C00164A934209D07B681B68B3F1804F04D088
:10219C007B681B68124A934211D17B681B689B6851
:1021AC0003F00703FB60FB68062B10D07B681B68F1
:1021BC001A687B681B6842F001021A6007E07B68B2
:1021CC001B681A687B681B6842F001021A600023C6
:1021DC0018461437BD4680BC704700BF002C014028
:1021EC000004004080B582B000AF78607B681B684B
:1021FC001B6903F00203022B22D17B681B68DB688E
:10220C0003F00203022B1BD17B681B686FF00202E8
:10221C001A617B6801221A777B681B689B6903F043
:10222C000303002B03D0786800F0B1F905E078685F
:10223C0000F0A4F9786800F0B3F97B6800221A77F3
:10224C007B681B681B6903F00403042B22D17B6899
:10225C001B68DB6803F00403042B1BD17B681B6831
:10226C006FF004021A617B6802221A777B681B6884
:10227C009B6903F44073002B03D0786800F087F956
:10228C0005E0786800F07AF9786800F089F97B68E5
:10229C0000221A777B681B681B6903F00803082B64
:1022AC0022D17B681B68DB6803F00803082B1BD169
:1022BC007B681B686FF008021A617B6804221A772E
:1022CC007B681B68DB6903F00303002B03D0786881
:1022DC0000F05DF905E0786800F050F9786800F0DE
:1022EC005FF97B6800221A777B681B681B6903F017
:1022FC001003102B22D17B681B68DB6803F01003E2
:10230C00102B1BD17B681B686FF010021A617B6865
:10231C0008221A777B681B68DB6903F44073002B77
:10232C0003D0786800F033F905E0786800F026F9FE
:10233C00786800F035F97B6800221A777B681B6897
:10234C001B6903F00103012B0ED17B681B68DB6852
:10235C0003F00103012B07D17B681B686FF00102AE
:10236C001A617868FEF71EF97B681B681B6903F01D
:10237C008003802B0ED17B681B68DB6803F0800325
:10238C00802B07D17B681B686FF080021A6178681C
:10239C0000F067FA7B681B681B6903F04003402B55
:1023AC000ED17B681B68DB6803F04003402B07D120
:1023BC007B681B686FF040021A61786800F0F9F8CE
:1023CC007B681B681B6903F02003202B0ED17B68F4
:1023DC001B68DB6803F02003202B07D17B681B688C
:1023EC006FF020021A61786800F032FA00BF0837EB
:1023FC00BD4680BD80B584B000AF786039607B6825
:10240C0093F83C30012B01D10223B3E07B6801220D
:10241C0083F83C207B68022283F83D207B681B6894
:10242C009B68FB60FB6823F07703FB60FB6823F47D
:10243C007F43FB607B681B68FA689A603B681B688B
:10244C00B3F5005F3ED0B3F5005F00F28780B3F5C3
:10245C00805F00F08580B3F5805F7FD8702B1AD039
:10246C00702B7BD8602B50D0602B77D8502B3CD066
:10247C00502B73D8402B58D0402B6FD8302B64D0B6
:10248C00302B6BD8202B60D0202B67D8002B5CD046
:10249C00102B5AD062E07B6818683B6899683B68DF
:1024AC005A683B68DB6800F05CF97B681B689B68CA
:1024BC00FB60FB6843F07703FB607B681B68FA6882
:1024CC009A604EE07B6818683B6899683B685A686C
:1024DC003B68DB6800F045F97B681B689A687B6891
:1024EC001B6842F480429A603BE07B6818683B684A
:1024FC0059683B68DB681A4600F0BCF87B681B68BF
:10250C005021184600F013F92BE07B6818683B68E3
:10251C0059683B68DB681A4600F0DAF87B681B6880
:10252C006021184600F003F91BE07B6818683B68D3
:10253C0059683B68DB681A4600F09CF87B681B689E
:10254C004021184600F0F3F80BE07B681A683B68F2
:10255C001B681946104600F0EAF802E000BF00E0E4
:10256C0000BF7B68012283F83D207B68002283F842
:10257C003C20002318461037BD4680BD80B483B084
:10258C0000AF786000BF0C37BD4680BC704780B48C
:10259C0083B000AF786000BF0C37BD4680BC70477D
:1025AC0080B483B000AF786000BF0C37BD4680BCF0
:1025BC00704780B483B000AF786000BF0C37BD4665
:1025CC0080BC704780B485B000AF786039607B68A0
:1025DC001B68FB607B68254A934207D07B68B3F18C
:1025EC00804F03D07B68224A934208D1FB6823F0CA
:1025FC007003FB603B685B68FA681343FB607B68A5
:10260C001A4A934207D07B68B3F1804F03D07B68A2
:10261C00174A934208D1FB6823F44073FB603B6874
:10262C00DB68FA681343FB60FB6823F080023B68AD
:10263C005B691343FB607B68FA681A603B689A68B5
:10264C007B68DA623B681A687B689A627B68074A27
:10265C00934203D13B681A697B681A637B68012239
:10266C005A6100BF1437BD4680BC7047002C014036
:10267C000004004080B487B000AFF860B9607A60A5
:10268C00FB681B6A7B61FB681B6A23F00102FB6819
:10269C001A62FB689B693B613B6923F0F0033B6169
:1026AC007B681B013A6913433B617B6923F00A0386
:1026BC007B617A69BB6813437B61FB683A699A61F9
:1026CC00FB687A691A6200BF1C37BD4680BC704734
:1026DC0080B487B000AFF860B9607A60FB681B6AA1
:1026EC0023F01002FB681A62FB689B697B61FB6834
:1026FC001B6A3B617B6923F470437B617B681B0322
:10270C007A6913437B613B6923F0A0033B61BB688F
:10271C001B013A6913433B61FB687A699A61FB6858
:10272C003A691A6200BF1C37BD4680BC704780B442
:10273C0085B000AF786039607B689B68FB60FB6894
:10274C0023F07003FB603A68FB68134343F0070304
:10275C00FB607B68FA689A6000BF1437BD4680BC8A
:10276C00704780B487B000AFF860B9607A603B60A6
:10277C00FB689B687B617B6923F47F437B613B68CF
:10278C001A027B681A43BB6813437A6913437B6153
:10279C00FB687A699A6000BF1C37BD4680BC7047E5
:1027AC0080B485B000AF786039607B6893F83C30BA
:1027BC00012B01D1022341E07B68012283F83C20EC
:1027CC007B68022283F83D207B681B685B68FB609A
:1027DC007B681B689B68BB60FB6823F07003FB6025
:1027EC003B681B68FA681343FB607B681B68FA68DC
:1027FC005A607B681B68144A934209D07B681B683B
:10280C00B3F1804F04D07B681B68104A93420CD103
:10281C00BB6823F08003BB603B685B68BA681343FA
:10282C00BB607B681B68BA689A607B68012283F87E
:10283C003D207B68002283F83C2000231846143787
:10284C00BD4680BC704700BF002C01400004004016
:10285C0080B483B000AF786000BF0C37BD4680BC3D
:10286C00704780B483B000AF786000BF0C37BD46B2
:10287C0080BC704780B582B000AF78607B68002B5D
:10288C0001D101233FE07B6893F83D30DBB2002B94
:10289C0006D17B68002283F83C207868FDF76CFF3A
:1028AC007B68242283F83D207B681B68DA687B6890
:1028BC001B6822F40052DA60786800F085FC7B68B3
:1028CC001B681A697B681B6822F490421A617B684A
:1028DC001B685A697B681B6822F02A025A617B6864
:1028EC001B68DA687B681B6842F40052DA607B680C
:1028FC0000221A647B68202283F83D207B6820220A
:10290C0083F83E20002318460837BD4680BD80B5AD
:10291C008AB002AFF860B9603B601346FB800023BD
:10292C007B61FB6893F83D30DBB2202B7CD1BB681C
:10293C00002B02D0FB88002B01D1012375E0FB6832
:10294C0093F83C30012B01D102236EE0FB6801228D
:10295C0083F83C20FB6800221A64FB68212283F870
:10296C003D20FEF751F87861FB68FA889A84FB6881
:10297C00FA88DA84FB689B68B3F5805F08D1FB6842
:10298C001B69002B04D10023FB61BB68BB6103E016
:10299C00BB68FB610023BB61FB68002283F83C2011
:1029AC002AE03B6800937B6900228021F86800F0E4
:1029BC0038FA0346002B01D0032336E0FB69002BC9
:1029CC000BD1BB691B881A46FB681B68C2F3080253
:1029DC005A60BB690233BB6107E0FB691A78FB687C
:1029EC001B685A60FB690133FB61FB68DB8C9BB293
:1029FC00013B9AB2FB68DA84FB68DB8C9BB2002B40
:102A0C00CFD13B6800937B6900224021F86800F02D
:102A1C0008FA0346002B01D0032306E0FB682022B2
:102A2C0083F83D20002300E0022318462037BD46E2
:102A3C0080BD80B584B000AFF860B9601346FB80F0
:102A4C00FB6893F83E30DBB2202B1DD1BB68002B0A
:102A5C0002D0FB88002B01D1012316E0FB6893F810
:102A6C003C30012B01D102230FE0FB68012283F8DB
:102A7C003C20FB6800221A63FB881A46B968F86888
:102A8C0000F019FA034600E0022318461037BD4641
:102A9C0080BD000080B58AB000AF78607B681B6891
:102AAC001B687B627B681B68DB683B627B681B680E
:102ABC005B69FB610023BB6100237B617B6A03F0D4
:102ACC000F03BB61BB69002B0DD17B6A03F02003A4
:102ADC00002B08D03B6A03F02003002B03D078684E
:102AEC0000F0C9FA7BE1BB69002B00F0B180FB69F7
:102AFC0003F00103002B05D13B6A03F49073002B08
:102B0C0000F0A6807B6A03F00103002B0AD03B6A1D
:102B1C0003F48073002B05D07B681B6C43F001021F
:102B2C007B681A647B6A03F00403002B0AD0FB69F0
:102B3C0003F00103002B05D07B681B6C43F00202F1
:102B4C007B681A647B6A03F00203002B0AD0FB69D2
:102B5C0003F00103002B05D07B681B6C43F00402CF
:102B6C007B681A647B6A03F00803002B0FD03B6A66
:102B7C0003F02003002B04D1FB6903F00103002BAD
:102B8C0005D07B681B6C43F008027B681A647B6879
:102B9C001B6C002B00F01E817B6A03F02003002BC2
:102BAC0007D03B6A03F02003002B02D0786800F0BA
:102BBC0062FA7B681B685B6903F04003002B14BF4F
:102BCC0001230023DBB27B617B681B6C03F00803E1
:102BDC00002B02D17B69002B31D0786800F0A4F96E
:102BEC007B681B685B6903F04003002B23D07B6878
:102BFC001B685A697B681B6822F040025A617B682B
:102C0C009B6B002B13D07B689B6B764A5A637B685B
:102C1C009B6B1846FEF770FB0346002B16D07B68A7
:102C2C009B6B5B6B7A68926B104698470EE07868EA
:102C3C0000F0E3F80AE0786800F0DFF806E0786866
:102C4C0000F0DBF87B6800221A64C3E000BFC1E02F
:102C5C007B681B6B012B40F0A1807B6A03F0100397
:102C6C00002B00F09B803B6A03F01003002B00F05C
:102C7C0095800023FB607B681B681B68FB607B688E
:102C8C001B685B68FB60FB687B681B685B6903F017
:102C9C004003002B4ED07B689B6B1B685B683B82B0
:102CAC003B8A002B00F098807B689B8D3A8A9A4275
:102CBC0080F092807B683A8ADA857B689B6B9B6993
:102CCC00202B2BD07B681B68DA687B681B6822F48E
:102CDC008072DA607B681B685A697B681B6822F01B
:102CEC0001025A617B681B685A697B681B6822F079
:102CFC0040025A617B68202283F83E207B680022C8
:102D0C001A637B681B68DA687B681B6822F0100208
:102D1C00DA607B689B6B1846FEF7B3FA7B689A8D7A
:102D2C007B68DB8D9BB2D31A9BB21946786800F096
:102D3C006DF851E07B689A8D7B68DB8D9BB2D31A62
:102D4C007B827B68DB8D9BB2002B47D07B8A002B70
:102D5C0044D07B681B68DA687B681B6822F490722D
:102D6C00DA607B681B685A697B681B6822F0010279
:102D7C005A617B68202283F83E207B6800221A630C
:102D8C007B681B68DA687B681B6822F01002DA60CB
:102D9C007B8A1946786800F039F81FE07B6A03F0EB
:102DAC008003002B08D03B6A03F08003002B03D078
:102DBC00786800F0F9F812E07B6A03F04003002B0E
:102DCC000DD03B6A03F04003002B08D0786800F06C
:102DDC003AF904E000BF02E000BF00E000BF283772
:102DEC00BD4680BD8D2F000880B483B000AF7860E5
:102DFC0000BF0C37BD4680BC704780B483B000AFB9
:102E0C00786000BF0C37BD4680BC704780B483B07F
:102E1C0000AF78600B467B8000BF0C37BD4680BC92
:102E2C00704780B584B000AFF860B9603B60134662
:102E3C00FB712CE0BB69B3F1FF3F28D0BB69002BC1
:102E4C0007D0FDF7E1FD02463B68D31ABA699A42F6
:102E5C001DD2FB681B68DA68FB681B6822F4D07211
:102E6C00DA60FB681B685A69FB681B6822F0010278
:102E7C005A61FB68202283F83D20FB68202283F8EE
:102E8C003E20FB68002283F83C2003230FE0FB6804
:102E9C001B681A68BB681340BA689A420CBF0123BE
:102EAC000023DBB21A46FB799A42C3D000231846A2
:102EBC001037BD4680BD80B485B000AFF860B960F6
:102ECC001346FB80FB68BA689A62FB68FA889A859D
:102EDC00FB68FA88DA85FB6800221A64FB682222F8
:102EEC0083F83E20FB68002283F83C20FB681B68BB
:102EFC00DA68FB681B6842F48072DA60FB681B6856
:102F0C005A69FB681B6842F001025A61FB681B6836
:102F1C00DA68FB681B6842F02002DA60002318466E
:102F2C001437BD4680BC704780B483B000AF786066
:102F3C007B681B68DA687B681B6822F49072DA6025
:102F4C007B681B685A697B681B6822F001025A6116
:102F5C007B681B6B012B07D17B681B68DA687B686D
:102F6C001B6822F01002DA607B68202283F83E2076
:102F7C007B6800221A6300BF0C37BD4680BC7047CB
:102F8C0080B584B000AF78607B685B6AFB60FB68DF
:102F9C000022DA85FB680022DA84F868FFF72DFF3F
:102FAC0000BF1037BD4680BD80B485B000AF7860DF
:102FBC007B6893F83D30DBB2212B3ED17B689B685C
:102FCC00B3F5805F14D17B681B69002B10D17B6833
:102FDC001B6AFB60FB681B881A467B681B68C2F384
:102FEC0008025A607B681B6A9A1C7B681A6208E0AC
:102FFC007B681B6A591C7A6811621A787B681B689B
:10300C005A607B68DB8C9BB2013B9BB27A68194699
:10301C00D184002B0FD17B681B68DA687B681B6836
:10302C0022F08002DA607B681B68DA687B681B68B8
:10303C0042F04002DA60002300E002231846143705
:10304C00BD4680BC704780B582B000AF78607B68AD
:10305C001B68DA687B681B6822F04002DA607B68C8
:10306C00202283F83D207868FFF7BEFE0023184627
:10307C000837BD4680BD80B586B000AF78607B68F0
:10308C0093F83E30DBB2222B40F099807B689B6832
:10309C00B3F5805F17D17B681B69002B13D100231C
:1030AC007B617B689B6A3B617B681B685B689BB23E
:1030BC00C3F308039AB23B691A807B689B6A9A1C1B
:1030CC007B689A6226E07B689B6A7B6100233B618C
:1030DC007B689B68B3F5805F07D07B689B68002B8F
:1030EC000AD17B681B69002B06D17B681B685B6867
:1030FC00DAB27B691A7008E07B681B685B68DBB22C
:10310C0003F07F03DAB27B691A707B689B6A5A1CE6
:10311C007B689A627B68DB8D9BB2013B9BB27A68C1
:10312C001946D185002B48D17B681B68DA687B680F
:10313C001B6822F02002DA607B681B68DA687B6807
:10314C001B6822F48072DA607B681B685A697B68A2
:10315C001B6822F001025A617B68202283F83E2012
:10316C007B681B6B012B23D17B6800221A637B6865
:10317C001B68DA687B681B6822F01002DA607B68D7
:10318C001B681B6803F01003102B0AD10023FB6093
:10319C007B681B681B68FB607B681B685B68FB605B
:1031AC00FB687B689B8D19467868FFF72FFE02E061
:1031BC007868FDF753F8002302E0002300E00223B7
:1031CC0018461837BD4680BD80B584B000AF786016
:1031DC007B681B681B6923F440517B68DA687B6849
:1031EC001B680A431A617B689A687B681B691A43DF
:1031FC007B685B691343BB607B681B68DB6823F4EB
:10320C00B05323F00C037A681268B9680B43D3608F
:10321C007B681B685B6923F440717B689A697B68E7
:10322C001B680A435A617B681B682C4A934203D182
:10323C00FEF754FEF86002E0FEF73CFEF860FA6818
:10324C0013469B0013449A001A447B685B689B00EE
:10325C00B2FBF3F3224AA2FB03235B091901FA68C0
:10326C0013469B0013449A001A447B685B689B00CE
:10327C00B2FBF3F21A4BA3FB02035B09642000FBC5
:10328C0003F3D31A1B013233154AA2FB03235B0948
:10329C0003F0F0031944FA6813469B0013449A0098
:1032AC001A447B685B689B00B2FBF3F20C4BA3FBEC
:1032BC0002035B09642000FB03F3D31A1B013233B6
:1032CC00074AA2FB03235B0903F00F027B681B6810
:1032DC000A449A6000BF1037BD4680BD00380140DB
:1032EC001F85EB5170B500260C4D0D4C641BA410C2
:1032FC00A64209D100F07EF800260A4D0A4C641B48
:10330C00A410A64205D170BD55F8043B9847013670
:10331C00EEE755F8043B98470136F2E768340008AD
:10332C0068340008683400086C340008931E222BA3
:10333C0010B50C4604D900231C460B70204610BD5A
:10334C000A2A09D1002807DA2D230B7001214042EB
:10335C00214400F00DF8F1E70021F9E7FFF7E6BF93
:10336C0003460244934200D1704703F8011BF9E76E
:10337C00F0B58BB005460B466E461D4C04F1200C87
:10338C00374620686168083403C764453E46F7D168
:10339C00217920683971911E222938604FF0000183
:1033AC0004D919700B4618460BB0F0BD581E844654
:1033BC00B5FBF2F702FB175628366E4416F8286C4C
:1033CC000C460CF8016F2E46B2423D4601F101014C
:1033DC00EED900225A541919A51AAA42E3DA10F8A8
:1033EC00015F0E780132067001F80159F4E700BF55
:1033FC0040340008F8B500BFF8BC08BC9E467047C6
:0C340C00F8B500BFF8BC08BC9E46704735
:1034180002030405060708090A0B0C0D0E0F10100D
:10342800000000000000000001020304060708096C
:1034380000000000010203043031323334353637DE
:1034480038396162636465666768696A6B6C6D6E5A
:103458006F707172737475767778797A00000000EE
:043468003101000826
:04346C000D01000846
:1034700001000000214144433D000000230D0A00EB
:0C3480000024F400100000000100000017
:0400000508000919CD
:00000001FF
