:020000040800F2
:100000000028002089140008191400081F14000893
:10001000251400082B14000831140008000000000B
:10002000000000000000000000000000371400087D
:1000300043140008000000004F1400085B1400087F
:10004000D1140008D1140008D1140008D1140008FC
:10005000D1140008D1140008D1140008D1140008EC
:10006000D1140008D1140008D1140008D1140008DC
:10007000D1140008D1140008D1140008D1140008CC
:10008000D1140008D1140008D1140008D1140008BC
:10009000D1140008D1140008D1140008D1140008AC
:1000A000D1140008D1140008D1140008D11400089C
:1000B00069140008D114000800000000D1140008E1
:1000C000D11400080000000000000000D114000856
:1000D00000000000D1140008D11400080000000046
:1000E000D1140008D1140008D11400080000000049
:1000F0000000000000000000000000000000000000
:0C01000000000000000000005FF808F1A3
:10010C0010B5054C237833B9044B13B10448AFF345
:10011C0000800123237010BD30000020000000007F
:10012C002C2B000808B5034B1BB103490348AFF354
:10013C00008008BD00000000340000202C2B0008BB
:10014C0080B582B000AF78607B68092B00F28081AB
:10015C0001A252F823F000BF8D010008D501000860
:10016C001D02000865020008AD020008F502000837
:10017C003D03000885030008CD03000815040008A2
:10018C0000220221C64801F0A2FC00220421C4482E
:10019C0001F09DFC00220821C14801F098FC0022CE
:1001AC001021BF4801F093FC00222021BC4801F033
:1001BC008EFC00224021BA4801F089FC01228021EA
:1001CC00B74801F084FC67E101220221B44801F038
:1001DC007EFC00220421B24801F079FC00220821A7
:1001EC00AF4801F074FC01221021AD4801F06FFC06
:1001FC0001222021AA4801F06AFC01224021A848D2
:10020C0001F065FC01228021A54801F060FC43E16E
:10021C0000220221A24801F05AFC00220421A0482D
:10022C0001F055FC012208219D4801F050FC0022F0
:10023C0010219B4801F04BFC00222021984801F032
:10024C0046FC01224021964801F041FC002280210D
:10025C00934801F03CFC1FE100220221904801F080
:10026C0036FC002204218E4801F031FC00220821CA
:10027C008B4801F02CFC00221021894801F027FC4E
:10028C0001222021864801F022FC012240218448D1
:10029C0001F01DFC00228021814801F018FCFBE0DC
:1002AC00012202217E4801F012FC002204217C482C
:1002BC0001F00DFC00220821794801F008FC012214
:1002CC001021774801F003FC01222021744801F031
:1002DC00FEFB00224021724801F0F9FB0022802134
:1002EC006F4801F0F4FBD7E0002202216C4801F0CA
:1002FC00EEFB012204216A4801F0E9FB00220821EF
:10030C00674801F0E4FB00221021654801F0DFFB97
:10031C0001222021624801F0DAFB002240216048D2
:10032C0001F0D5FB002280215D4801F0D0FBB3E049
:10033C00002202215A4801F0CAFB0122042158482C
:10034C0001F0C5FB00220821554801F0C0FB00223A
:10035C001021534801F0BBFB00222021504801F032
:10036C00B6FB002240214E4801F0B1FB0022802157
:10037C004B4801F0ACFB8FE000220221484801F011
:10038C00A6FB00220421464801F0A1FB0022082113
:10039C00434801F09CFB01221021414801F097FBDE
:1003AC00012220213E4801F092FB012240213C48D1
:1003BC0001F08DFB01228021394801F088FB6BE0B4
:1003CC0000220221364801F082FB0022042134482D
:1003DC0001F07DFB00220821314801F078FB00225E
:1003EC0010212F4801F073FB002220212C4801F032
:1003FC006EFB002240212A4801F069FB002280217B
:10040C00274801F064FB47E000220221244801F058
:10041C005EFB00220421224801F059FB0022082136
:10042C001F4801F054FB002210211D4801F04FFB26
:10043C00012220211A4801F04AFB002240211848D1
:10044C0001F045FB00228021154801F040FB23E020
:10045C0001220221124801F03AFB0122042110482A
:10046C0001F035FB012208210D4801F030FB01227F
:10047C0010210B4801F02BFB01222021084801F030
:10048C0026FB01224021064801F021FB012280219C
:10049C00034801F01CFB00BF00BF0837BD4680BD00
:1004AC00000C014080B582B000AF78607B68092BEE
:1004BC0000F2B68101A252F823F000BFF10400084B
:1004CC004305000895050008E705000839060008F3
:1004DC008B060008DD0600082F07000881070008BE
:1004EC00D307000800228021CB4801F0F0FA00224B
:1004FC004FF48071C84801F0EAFA00224FF4007101
:10050C00C54801F0E4FA00224FF48061C24801F0C2
:10051C00DEFA00224FF40061BF4801F0D8FA002245
:10052C004FF40041BC4801F0D2FA01220121BB4832
:10053C0001F0CDFA9DE101228021B74801F0C7FA04
:10054C0000224FF48071B44801F0C1FA00224FF43C
:10055C000071B14801F0BBFA01224FF48061AE4842
:10056C0001F0B5FA01224FF40061AB4801F0AFFA8B
:10057C0001224FF40041A84801F0A9FA01220121FF
:10058C00A64801F0A4FA74E100228021A24801F0EF
:10059C009EFA00224FF480719F4801F098FA0122D4
:1005AC004FF400719C4801F092FA00224FF48061E4
:1005BC00994801F08CFA00224FF40061964801F042
:1005CC0086FA01224FF40041934801F080FA002290
:1005DC000121924801F07BFA4BE1002280218E48E8
:1005EC0001F075FA00224FF480718B4801F06FFA1C
:1005FC0000224FF40071884801F069FA00224FF490
:10060C008061854801F063FA01224FF40061824851
:10061C0001F05DFA01224FF400417F4801F057FAD6
:10062C00002201217D4801F052FA22E101228021B1
:10063C00794801F04CFA00224FF48071764801F0B1
:10064C0046FA00224FF40071734801F040FA01227F
:10065C004FF48061704801F03AFA01224FF40061C6
:10066C006D4801F034FA00224FF400416A4801F061
:10067C002EFA00220121694801F029FAF9E0002242
:10068C008021654801F023FA01224FF48071624801
:10069C0001F01DFA00224FF400715F4801F017FAC7
:1006AC0000224FF480615C4801F011FA01224FF4F2
:1006BC000061594801F00BFA00224FF400415648F2
:1006CC0001F005FA00220121544801F000FAD0E0B3
:1006DC0000228021504801F0FAF901224FF4807178
:1006EC004D4801F0F4F900224FF400714A4801F032
:1006FC00EEF900224FF48061474801F0E8F900223E
:10070C004FF40061444801F0E2F900224FF400413B
:10071C00414801F0DCF900220121404801F0D7F9F1
:10072C00A7E0002280213C4801F0D1F900224FF4CF
:10073C008071394801F0CBF900224FF40071364832
:10074C0001F0C5F901224FF48061334801F0BFF983
:10075C0001224FF40061304801F0B9F901224FF445
:10076C0000412D4801F0B3F9012201212B4801F081
:10077C00AEF97EE000228021274801F0A8F9002282
:10078C004FF48071244801F0A2F900224FF400715B
:10079C00214801F09CF900224FF480611E4801F0C1
:1007AC0096F900224FF400611B4801F090F90022E9
:1007BC004FF40041184801F08AF900220121174832
:1007CC0001F085F955E000228021134801F07FF9F2
:1007DC0000224FF48071104801F079F900224FF497
:1007EC0000710D4801F073F900224FF480610A4842
:1007FC0001F06DF901224FF40061074801F067F92F
:10080C0000224FF40041044801F061F9002201215B
:10081C00024801F05CF92CE000080140000C01409A
:10082C0001228021154801F052F901224FF4807108
:10083C00124801F04CF901224FF400710F4801F0FD
:10084C0046F901224FF480610C4801F040F9012275
:10085C004FF40061094801F03AF901224FF40041CC
:10086C00064801F034F901220121054801F02FF965
:10087C0000BF00BF0837BD4680BD00BF0008014067
:10088C00000C014080B500AF214B1B68013B032BD2
:10089C0032D801A252F823F0B5080008C9080008A4
:1008AC00DD080008F1080008002000F08BFB03466F
:1008BC00002B23D0164B02221A601FE0002000F000
:1008CC0081FB0346002B1BD0114B03221A6017E04F
:1008DC00002000F077FB0346002B13D00C4B0422B6
:1008EC001A600FE0002000F06DFB0346002B0BD0CC
:1008FC00074B01221A6007E000BF06E000BF04E0CE
:10090C0000BF02E000BF00E000BF00BF80BD00BF21
:10091C000000002080B400AF0E4B1B68012B01D1EE
:10092C00012313E00B4B1B68022B01D102230DE0BA
:10093C00084B1B68032B01D1032307E0054B1B68F5
:10094C00042B01D1042301E04FF0FF331846BD46C0
:10095C0080BC70470000002080B500AF484B1B687E
:10096C00013B032B00F2888001A252F823F000BF58
:10097C008D090008A7090008F10900083B0A0008C6
:10098C00404B1B68404A13603E4B5B683E4A5360C9
:10099C003C4B9B683C4A93606FE0012000F012FBDB
:1009AC000346002B04D0384B1B680133364A1360C6
:1009BC00354B1B68354A82FB03129210DB17D31A96
:1009CC00334A1360304B1968304B83FB01239A1068
:1009DC00CB17D21A13469B0013445B00CA1A2C4B3C
:1009EC005A604AE0012000F0EDFA0346002B04D0D7
:1009FC00254B5B680133244A5360234B5B68234AC5
:100A0C0082FB03129210DB17D31A214A13601E4B80
:100A1C0059681E4B83FB01239A10CB17D21A13462D
:100A2C009B0013445B00CA1A194B5A6025E0012045
:100A3C0000F0C8FA0346002B04D0134B9B6801331B
:100A4C00114A9360104B9B68104A82FB0312921060
:100A5C00DB17D31A0E4A13600B4B99680B4B83FBB5
:100A6C0001239A10CB17D21A13469B0013445B0038
:100A7C00CA1A074B5A6000E000BF00BF80BD00BF20
:100A8C00000000201000002004000020676666664D
:100A9C005400002080B500AF1A4B1B68042B1CD0EF
:100AAC00042B25DC022B02D0032B0BD020E00220E0
:100ABC0000F088FA0346002B1CD0134B1B68134A1A
:100ACC00136017E0022000F07DFA0346002B13D0D0
:100ADC000D4B5B680D4A53600EE0022000F072FA79
:100AEC000346002B0AD0084B9B68084A936005E02C
:100AFC0000BF04E000BF02E000BF00E000BF00BF89
:100B0C0080BD00BF00000020040000201000002069
:100B1C0080B500AF314B1B68022B1CD1082130482B
:100B2C0000F0EDFF40212E4800F0E9FF01220421E6
:100B3C002B4800F0CCFF01222021294800F0C7FFF0
:100B4C0001220221264800F0C2FF01221021244874
:100B5C0000F0BDFF40E0214B1B68032B1CD104218E
:100B6C001F4800F0CCFF20211D4800F0C8FF0122D7
:100B7C0008211B4800F0ABFF01224021184800F06F
:100B8C00A6FF01220221164800F0A1FF012210212C
:100B9C00134800F09CFF1FE0104B1B68042B1BD16B
:100BAC0002210F4800F0ABFF10210D4800F0A7FF09
:100BBC00012204210A4800F08AFF01222021084862
:100BCC0000F085FF01220821054800F080FF01227A
:100BDC004021034800F07BFF00BF80BD00000020D7
:100BEC000008014080B500AF1D4B1B68002B03F0C3
:100BFC000103B8BF5B42002B02D0012B17D02DE0B4
:100C0C0001224FF48051174800F061FF00224FF48D
:100C1C000051144800F05BFF134B5B681846FFF75C
:100C2C008FFA0F4B1B6801330D4A136016E000223C
:100C3C004FF480510B4800F04AFF01224FF4005151
:100C4C00084800F044FF084B1B681846FFF778FA79
:100C5C00034B1B680133024A136000BF00BF80BD09
:100C6C005C000020000C01405400002080B500AF57
:100C7C008F4B1B68012B40F0188100224FF48051E0
:100C8C008C4800F024FF00224FF40051894800F0FA
:100C9C001EFF894B1B68002B28D100220821874896
:100CAC0000F015FF01220421844800F010FF0122FE
:100CBC000221824800F00BFF814B1A68814B1B68A4
:100CCC00D31A1846FFF73CFA7E4B1B6801337D4A5A
:100CDC0013607B4B1A687B4B1B689A425FD1794B34
:100CEC0000221A60744B02221A6058E0724B1B6887
:100CFC00012B28D101220821704800F0E8FE0022C7
:100D0C0004216E4800F0E3FE012202216B4800F042
:100D1C00DEFE6B4B5A686B4B1B68D31A1846FFF7F9
:100D2C000FFA684B1B680133664A1360644B5A68B0
:100D3C00644B1B689A4232D1624B00221A605E4BA4
:100D4C0000221A602BE05C4B1B68022B27D101227E
:100D5C0008215A4800F0BBFE01220421574800F03C
:100D6C00B6FE00220221554800F0B1FE544B9A68A1
:100D7C00544B1B68D31A1846FFF7E2F9514B1B680A
:100D8C000133504A13604E4B9A684E4B1B689A4283
:100D9C0005D14C4B00221A60474B01221A60464B7E
:100DAC005B68022B28D101224021444800F08FFEC1
:100DBC0001222021414800F08AFE002210213F48E8
:100DCC0000F085FE3E4B9A683E4B5B68D31A184682
:100DDC00FFF768FB3B4B5B6801333A4A5360384B77
:100DEC009A68384B5B689A425FD1364B00225A6046
:100DFC00314B01225A6058E02F4B5B68012B28D1F4
:100E0C00012240212D4800F062FE002220212B48B7
:100E1C0000F05DFE01221021284800F058FE284BFE
:100E2C005A68284B5B68D31A1846FFF73BFB254BD7
:100E3C005B680133234A5360214B5A68214B5B6832
:100E4C009A4232D11F4B00225A601B4B00225A602F
:100E5C002BE0194B5B68002B27D10022402117484F
:100E6C0000F035FE01222021144800F030FE012252
:100E7C001021124800F02BFE114B1A68114B5B68C5
:100E8C00D31A1846FFF70EFB0E4B5B6801330D4A65
:100E9C0053600B4B1A680B4B5B689A4205D1094B9C
:100EAC0000225A60044B02225A6000BF80BD00BF72
:100EBC0000000020000C01401C0000200008014034
:100ECC00100000204C00002080B582B000AF002341
:100EDC00FB8063E0FA88FB883449895C344AD1543E
:100EEC00FB88002B09D14FF40071324800F0D8FD7B
:100EFC0003461A462D4B1A7018E0FB88012B09D1BA
:100F0C004FF480612B4800F0CBFD03461A46274B6B
:100F1C005A700BE0FB88022B08D14FF40061254876
:100F2C0000F0BEFD03461A46204B9A70FB881F4A00
:100F3C00D25CFB881E49CB5C9A4205D1FA88FB88AF
:100F4C001A49895C1C4AD154FB881B4AD35C002B80
:100F5C0018D1FB88194A32F81330312B0DD8FB8885
:100F6C00174A0021D154FB88144A32F8132001325D
:100F7C0091B2124A22F813100DE0FB88104A01219D
:100F8C00D15408E0FB880E4A0021D154FB880B4A4F
:100F9C00002122F81310FB880133FB80FB88022B05
:100FAC0098D900BF00BF0837BD4680BD6400002043
:100FBC0068000020000C0140600000207000002040
:100FCC006C00002080B483B000AF78607B68022B8B
:100FDC0001DD002308E0074A7B6813441B78012BD2
:100FEC000CBF01230023DBB218460C37BD4680BC76
:100FFC00704700BF6000002080B500AF00F064FABD
:10100C0000F038F800F0BEF800F070F8164801F067
:10101C00C7F9FA2000F02EF9652000F03FF96120A5
:10102C0000F050F9114B1B68002BFBD0FFF72AFC8A
:10103C00FFF792FCFFF72EFDFFF76CFC0346012B2C
:10104C0005D1FA2000F016F9FFF710FEEAE764204C
:10105C0000F010F9FFF75CFD054B1B681846FFF715
:10106C0021FAFFF7BFFDDDE778000020C400002067
:10107C000000002080B590B000AF07F118032822C3
:10108C000021184601F044FD3B1D00221A605A60F5
:10109C009A60DA601A610223BB610123BB621023E0
:1010AC00FB6200237B6307F11803184600F040FD38
:1010BC000346002B01D000F0D7F80F237B600023F0
:1010CC00BB600023FB6000233B6100237B613B1D65
:1010DC000021184600F0AEFF0346002B01D000F0B3
:1010EC00C3F800BF4037BD4680BD000080B586B058
:1010FC0000AF07F1080300221A605A609A60DA60A8
:10110C003B4600221A605A601D4B4FF080421A6019
:10111C001B4B41F63F725A60194B00229A60184BD8
:10112C000922DA60164B00221A61154B00229A61D3
:10113C00134801F0E5F80346002B01D000F094F8B9
:10114C004FF48053BB6007F1080319460C4801F0BB
:10115C007BFA0346002B01D000F086F800233B609D
:10116C0000237B603B461946054801F043FC0346CF
:10117C00002B01D000F078F800BF1837BD4680BDB9
:10118C007800002080B586B000AF07F1080300227C
:10119C001A605A609A60DA602A4B9B69294A43F0BC
:1011AC0004039361274B9B6903F004037B607B680A
:1011BC00244B9B69234A43F008039361214B9B69A1
:1011CC0003F008033B603B6800224AF6FE711E48A0
:1011DC0000F07DFC002243F6FF611C4800F077FC18
:1011EC004AF6FE73BB600123FB6000233B610223C4
:1011FC007B6107F108031946134800F0D5FA40F259
:10120C00FF63BB600123FB6000233B6102237B6116
:10121C0007F1080319460D4800F0C6FA4FF4605365
:10122C00BB600123FB6002233B6102237B6107F15E
:10123C0008031946054800F0B7FA00BF1837BD4639
:10124C0080BD00BF0010024000080140000C0140AE
:10125C0080B582B000AF786000F048F8FFF734FE3C
:10126C0000BF0837BD4680BD80B400AF72B600BF6A
:10127C00FEE7000080B483B000AF7860054A7B685D
:10128C001360054B00221A6000BF0C37BD4680BCB2
:10129C00704700BFC0000020C400002080B483B0A1
:1012AC0000AF7860054A7B681360054B00221A601A
:1012BC0000BF0C37BD4680BC704700BFC800002083
:1012CC00CC00002080B483B000AF7860054A7B6806
:1012DC001360054B00221A6000BF0C37BD4680BC62
:1012EC00704700BFD0000020D400002080B400AFB5
:1012FC001B4B1B68002B05DD194B1B68013B184A67
:10130C00136002E0174B01221A60174B1B68002B6D
:10131C0005DD154B1B68013B134A136002E0134BB0
:10132C0001221A60124B1B68002B05DD104B1B6849
:10133C00013B0F4A136002E00E4B01221A600E4B68
:10134C001B68002B05DD0C4B1B68013B0A4A136024
:10135C0002E00A4B01221A6000BFBD4680BC7047F8
:10136C00C0000020C4000020C8000020CC000020D9
:10137C00D0000020D4000020D8000020DC00002089
:10138C0080B483B000AF0E4B9B690D4A43F0010350
:10139C0093610B4B9B6903F001037B607B68084BEB
:1013AC00DB69074A43F08053D361054BDB6903F0DB
:1013BC0080533B603B6800BF0C37BD4680BC704718
:1013CC000010024080B584B000AF78607B681B6869
:1013DC00B3F1804F13D10C4BDB690B4A43F0010383
:1013EC00D361094BDB6903F00103FB60FB6800224E
:1013FC0000211C2000F0A1F91C2000F0BAF900BF5C
:10140C001037BD4680BD00BF0010024080B400AF55
:10141C00FEE780B400AFFEE780B400AFFEE780B417
:10142C0000AFFEE780B400AFFEE780B400AF00BFB2
:10143C00BD4680BC704780B400AF00BFBD4680BCC9
:10144C00704780B400AF00BFBD4680BC704780B50C
:10145C0000AF00F07FF800BF80BD000080B500AF8A
:10146C00024800F0E9FF00BF80BD00BF78000020FB
:10147C0080B400AF00BFBD4680BC70470C480D491E
:10148C000D4A002302E0D458C4500433C4188C42D3
:10149C00F9D30A4A0A4C002301E013600432A24239
:1014AC00FBD3FFF7E5FF01F00FFBFFF7A5FD70473E
:1014BC0000000020300000206C2B000830000020C1
:1014CC00E4000020FEE7000080B500AF084B1B686D
:1014DC00074A43F010031360032000F023F90F2098
:1014EC0000F008F8FFF74CFF0023184680BD00BF42
:1014FC000020024080B582B000AF7860124B1A68B1
:10150C00124B1B7819464FF47A73B3FBF1F3B2FB11
:10151C00F3F3184600F03BF90346002B01D00123EE
:10152C000EE07B680F2B0AD8002279684FF0FF3051
:10153C0000F003F9064A7B681360002300E00123E6
:10154C0018460837BD4680BD240000202C00002022
:10155C002800002080B400AF054B1B781A46054BC1
:10156C001B681344034A136000BFBD4680BC704720
:10157C002C000020E000002080B400AF024B1B6860
:10158C001846BD4680BC7047E000002080B485B092
:10159C0000AF78607B6803F00703FB600C4BDB68E3
:1015AC00BB60BA684FF6FF031340BB60FB681A02BE
:1015BC00BB68134343F0BF6343F40033BB60044A7E
:1015CC00BB68D36000BF1437BD4680BC704700BFFA
:1015DC0000ED00E080B400AF044BDB681B0A03F0A5
:1015EC0007031846BD4680BC704700BF00ED00E005
:1015FC0080B483B000AF0346FB7197F90730002B22
:10160C000BDBFB7903F01F02064997F907305B09E6
:10161C00012000FA02F241F8232000BF0C37BD462E
:10162C0080BC704700E100E080B483B000AF03469B
:10163C003960FB7197F90730002B0ADB3B68DAB293
:10164C000C4997F907301201D2B20B4483F80023EE
:10165C000AE03B68DAB20849FB7903F00F03043B5C
:10166C001201D2B20B441A7600BF0C37BD4680BCB7
:10167C00704700BF00E100E000ED00E080B489B0ED
:10168C0000AFF860B9607A60FB6803F00703FB6198
:10169C00FB69C3F10703042B28BF0423BB61FB695F
:1016AC000433062B02D9FB69033B00E000237B616A
:1016BC004FF0FF32BB6902FA03F3DA43BB681A40FE
:1016CC007B699A404FF0FF317B6901FA03F3D943F0
:1016DC007B680B40134318462437BD4680BC7047CB
:1016EC0080B582B000AF78607B68013BB3F1807F3E
:1016FC0001D301230FE00A4A7B68013B53600F21A1
:10170C004FF0FF30FFF790FF054B00229A60044B1F
:10171C0007221A60002318460837BD4680BD00BF5B
:10172C0010E000E080B582B000AF78607868FFF719
:10173C002DFF00BF0837BD4680BD80B586B000AF19
:10174C000346B9607A60FB7300237B61FFF742FFAD
:10175C0078617A68B9687869FFF790FF024697F963
:10176C000F3011461846FFF75FFF00BF1837BD4614
:10177C0080BD80B582B000AF0346FB7197F907308E
:10178C001846FFF735FF00BF0837BD4680BD80B552
:10179C0082B000AF78607868FFF7A2FF0346184666
:1017AC000837BD4680BD000080B48BB000AF7860B8
:1017BC00396000237B6200233B6261E101227B6A7A
:1017CC0002FA03F3FB613B681B68FA691340BB61C7
:1017DC00BA69FB699A4240F050813B685B68974A52
:1017EC0093425ED0954A934275D8954A934258D00D
:1017FC00934A93426FD8934A934252D0914A934260
:10180C0069D8914A93424CD08F4A934263D88F4AFD
:10181C00934246D08D4A93425DD8122B2AD8122B74
:10182C0059D801A252F823F0AF1800088918000803
:10183C009B180008DD180008E3180008E3180008DE
:10184C00E3180008E3180008E3180008E318000880
:10185C00E3180008E3180008E3180008E318000870
:10186C00E3180008E3180008E318000891180008B2
:10187C00A5180008764A934213D02CE03B68DB682D
:10188C003B6229E03B68DB6804333B6224E03B6845
:10189C00DB6808333B621FE03B68DB680C333B6260
:1018AC001AE03B689B68002B02D104233B6213E0D7
:1018BC003B689B68012B05D108233B627B68FA6966
:1018CC001A6109E008233B627B68FA695A6103E0FC
:1018DC0000233B6200E000BFBB69FF2B01D87B6893
:1018EC0001E07B6804337B61BB69FF2B02D87B6A08
:1018FC009B0002E07B6A083B9B003B617B691A689A
:10190C000F213B6901FA03F3DB431A40396A3B6947
:10191C0001FA03F31A437B691A603B685B6803F0B6
:10192C008053002B00F0A9804A4B9B69494A43F035
:10193C0001039361474B9B6903F00103BB60BB68D8
:10194C00454A7B6A9B08023352F82330FB607B6A62
:10195C0003F003039B000F2202FA03F3DB43FA6844
:10196C001340FB607B683D4A93420DD07B683C4A38
:10197C00934207D07B683B4A934201D1022304E097
:10198C00032302E0012300E000237A6A02F0030241
:10199C0092009340FA681343FB602F497B6A9B08C3
:1019AC000233FA6841F823203B685B6803F4803308
:1019BC00002B06D02C4B1A682B49BB6913430B60C8
:1019CC0006E0294B1A68BB69DB43274913400B60BF
:1019DC003B685B6803F40033002B06D0224B5A683B
:1019EC002149BB6913434B6006E01F4B5A68BB6926
:1019FC00DB431D4913404B603B685B6803F4801369
:101A0C00002B06D0184B9A681749BB6913438B609F
:101A1C0006E0154B9A68BB69DB43134913408B6096
:101A2C003B685B6803F40013002B1FD00E4BDA6885
:101A3C000D49BB691343CB601FE000BF000032109F
:101A4C0000003110000022100000211000001210C4
:101A5C00000011100010024000000140000801407D
:101A6C00000C014000100140000401400B4BDA68EF
:101A7C00BB69DB4309491340CB607B6A01337B6252
:101A8C003B681A687B6A22FA03F3002B7FF496AE4C
:101A9C0000BF00BF2C37BD4680BC7047000401401E
:101AAC0080B485B000AF78600B467B807B689A6809
:101ABC007B881340002B02D00123FB7301E0002331
:101ACC00FB73FB7B18461437BD4680BC704780B453
:101ADC0083B000AF78600B467B8013467B707B78BD
:101AEC00002B03D07A887B681A6103E07B881A0488
:101AFC007B681A6100BF0C37BD4680BC704780B450
:101B0C0085B000AF78600B467B807B68DB68FB6040
:101B1C007A88FB6813401A04FB68D9437B880B4016
:101B2C001A437B681A6100BF1437BD4680BC7047EE
:101B3C0080B586B000AF78607B68002B01D10123A3
:101B4C0072E27B681B6803F00103002B00F08780B6
:101B5C00924B5B6803F00C03042B0CD08F4B5B682F
:101B6C0003F00C03082B12D18C4B5B6803F480330D
:101B7C00B3F5803F0BD1894B1B6803F40033002B6A
:101B8C006CD07B685B68002B68D101234CE27B68CE
:101B9C005B68B3F5803F06D1804B1B687F4A43F4EA
:101BAC00803313602EE07B685B68002B0CD17B4B81
:101BBC001B687A4A23F480331360784B1B68774A8E
:101BCC0023F4802313601DE07B685B68B3F5A02FC2
:101BDC000CD1724B1B68714A43F4802313606F4B1A
:101BEC001B686E4A43F4803313600BE06B4B1B682D
:101BFC006A4A23F480331360684B1B68674A23F4EA
:101C0C00802313607B685B68002B13D0FFF7B4FC58
:101C1C00386108E0FFF7B0FC02463B69D31A642B2D
:101C2C0001D9032300E25D4B1B6803F40033002B46
:101C3C00F0D014E0FFF7A0FC386108E0FFF79CFC43
:101C4C0002463B69D31A642B01D90323ECE1534BB5
:101C5C001B6803F40033002BF0D100E000BF7B685D
:101C6C001B6803F00203002B63D04C4B5B6803F042
:101C7C000C03002B0BD0494B5B6803F00C03082BB7
:101C8C001CD1464B5B6803F48033002B16D1434BBD
:101C9C001B6803F00203002B05D07B681B69012B2A
:101CAC0001D00123C0E13D4B1B6823F0F8027B6897
:101CBC005B69DB00394913430B603AE07B681B69B5
:101CCC00002B20D0364B01221A60FFF755FC3861EF
:101CDC0008E0FFF751FC02463B69D31A022B01D9ED
:101CEC000323A1E12D4B1B6803F00203002BF0D062
:101CFC002A4B1B6823F0F8027B685B69DB002749E1
:101D0C0013430B6015E0264B00221A60FFF734FCDE
:101D1C00386108E0FFF730FC02463B69D31A022B0E
:101D2C0001D9032380E11D4B1B6803F00203002B38
:101D3C00F0D17B681B6803F00803002B3AD07B685A
:101D4C009B69002B19D0174B01221A60FFF714FC6A
:101D5C00386108E0FFF710FC02463B69D31A022BEE
:101D6C0001D9032360E10D4B5B6A03F00203002BE6
:101D7C00F0D0012000F0A6FA1CE00A4B00221A60F9
:101D8C00FFF7FAFB38610FE0FFF7F6FB02463B6901
:101D9C00D31A022B08D9032346E100BF00100240DE
:101DAC000000424280044242924B5B6A03F0020301
:101DBC00002BE9D17B681B6803F00403002B00F0B7
:101DCC00A6800023FB758B4BDB6903F08053002B43
:101DDC000DD1884BDB69874A43F08053D361854B27
:101DEC00DB6903F08053BB60BB680123FB75824B3E
:101DFC001B6803F48073002B18D17F4B1B687E4A41
:101E0C0043F480731360FFF7B7FB386108E0FFF70A
:101E1C00B3FB02463B69D31A642B01D9032303E1BC
:101E2C00754B1B6803F48073002BF0D07B68DB6868
:101E3C00012B06D16F4B1B6A6E4A43F001031362F0
:101E4C002DE07B68DB68002B0CD16A4B1B6A694A5E
:101E5C0023F001031362674B1B6A664A23F00403E9
:101E6C0013621CE07B68DB68052B0CD1614B1B6A91
:101E7C00604A43F0040313625E4B1B6A5D4A43F0F5
:101E8C00010313620BE05B4B1B6A5A4A23F00103FC
:101E9C001362584B1B6A574A23F0040313627B6886
:101EAC00DB68002B15D0FFF767FB38610AE0FFF702
:101EBC0063FB02463B69D31A41F28832934201D943
:101ECC000323B1E04B4B1B6A03F00203002BEED053
:101EDC0014E0FFF751FB38610AE0FFF74DFB0246B7
:101EEC003B69D31A41F28832934201D903239BE018
:101EFC00404B1B6A03F00203002BEED1FB7D012B40
:101F0C0005D13C4BDB693B4A23F08053D3617B68A2
:101F1C00DB69002B00F08780364B5B6803F00C0309
:101F2C00082B61D07B68DB69022B46D1334B002236
:101F3C001A60FFF721FB386108E0FFF71DFB024632
:101F4C003B69D31A022B01D903236DE0294B1B6883
:101F5C0003F00073002BF0D17B681B6AB3F5803F54
:101F6C0008D1244B5B6823F400327B689B682149C1
:101F7C0013434B601F4B5B6823F474127B68196A24
:101F8C007B685B6A0B431B4913434B601B4B012261
:101F9C001A60FFF7F1FA386108E0FFF7EDFA024634
:101FAC003B69D31A022B01D903233DE0114B1B686B
:101FBC0003F00073002BF0D035E0104B00221A60B8
:101FCC00FFF7DAFA386108E0FFF7D6FA02463B6908
:101FDC00D31A022B01D9032326E0064B1B6803F00E
:101FEC000073002BF0D11EE07B68DB69012B07D15D
:101FFC00012319E0001002400070004060004242D2
:10200C000B4B5B68FB60FB6803F480327B681B6ADC
:10201C009A4206D1FB6803F470127B685B6A9A42A1
:10202C0001D0012300E0002318461837BD4680BDBF
:10203C000010024080B584B000AF786039607B68D6
:10204C00002B01D10123D0E06A4B1B6803F007037E
:10205C003A689A4210D9674B1B6823F0070265490E
:10206C003B6813430B60634B1B6803F007033A6830
:10207C009A4201D00123B8E07B681B6803F002038D
:10208C00002B20D07B681B6803F00403002B05D0C9
:10209C00594B5B68584A43F4E06353607B681B6898
:1020AC0003F00803002B05D0534B5B68524A43F4F2
:1020BC0060535360504B5B6823F0F0027B689B6865
:1020CC004D4913434B607B681B6803F00103002BE5
:1020DC0040D07B685B68012B07D1474B1B6803F42E
:1020EC000033002B15D101237FE07B685B68022B4A
:1020FC0007D1414B1B6803F00073002B09D101235E
:10210C0073E03D4B1B6803F00203002B01D101234C
:10211C006BE0394B5B6823F003027B685B683649E4
:10212C0013434B60FFF728FAF8600AE0FFF724FA34
:10213C000246FB68D31A41F28832934201D9032339
:10214C0053E02D4B5B6803F00C027B685B689B00D3
:10215C009A42EBD1274B1B6803F007033A689A426B
:10216C0010D2244B1B6823F0070222493B6813430F
:10217C000B60204B1B6803F007033A689A4201D0AE
:10218C00012332E07B681B6803F00403002B08D0AA
:10219C00194B5B6823F4E0627B68DB6816491343D8
:1021AC004B607B681B6803F00803002B09D0124BB3
:1021BC005B6823F460527B681B69DB000E49134398
:1021CC004B6000F021F802460B4B5B681B0903F0D7
:1021DC000F030A49CB5C22FA03F3094A1360094B3B
:1021EC001B681846FFF786F9002318461037BD46C2
:1021FC0080BD00BF0020024000100240542B00089C
:10220C00240000202800002090B48AB000AF294B95
:10221C003C1D0FCB84E80F0040F201233B800023D0
:10222C00FB610023BB6100237B6200237B610023E5
:10223C003B62214B5B68FB61FB6903F00C03042BD5
:10224C0002D0082B03D02BE01C4B3B622BE0FB692C
:10225C009B0C03F00F0328333B4413F8243C7B61A5
:10226C00FB6903F48033002B12D0134B5B685B0CBF
:10227C0003F0010328333B4413F8283CBB617B6912
:10228C000E4A03FB02F2BB69B2FBF3F37B6204E080
:10229C007B690B4A02FB03F37B627B6A3B6202E0C5
:1022AC00064B3B6200BF3B6A18462837BD4690BCC4
:1022BC00704700BF442B00080010024000127A0047
:1022CC0000093D0080B485B000AF78600A4B1B68F4
:1022DC000A4AA2FB03235B0A7A6802FB03F3FB6046
:1022EC0000BFFB685A1EFA60002BF9D100BF00BF7B
:1022FC001437BD4680BC704724000020D34D6210BB
:10230C0080B582B000AF78607B68002B01D10123CF
:10231C0041E07B6893F83D30DBB2002B06D17B6843
:10232C00002283F83C207868FFF74CF87B68022287
:10233C0083F83D207B681A687B6804331946104685
:10234C0000F06AFA7B68012283F846207B68012240
:10235C0083F83E207B68012283F83F207B680122B2
:10236C0083F840207B68012283F841207B6801229E
:10237C0083F842207B68012283F843207B6801228A
:10238C0083F844207B68012283F845207B68012276
:10239C0083F83D20002318460837BD4680BD000059
:1023AC0080B485B000AF78607B6893F83D30DBB2C9
:1023BC00012B01D0012335E07B68022283F83D20FC
:1023CC007B681B68DA687B681B6842F00102DA6084
:1023DC007B681B68164A934209D07B681B68B3F173
:1023EC00804F04D07B681B68124A934211D17B68E2
:1023FC001B689B6803F00703FB60FB68062B10D07F
:10240C007B681B681A687B681B6842F001021A60C3
:10241C0007E07B681B681A687B681B6842F0010246
:10242C001A60002318461437BD4680BC704700BFA5
:10243C00002C01400004004080B582B000AF7860F1
:10244C007B681B681B6903F00203022B22D17B689B
:10245C001B68DB6803F00203022B1BD17B681B6833
:10246C006FF002021A617B6801221A777B681B6885
:10247C009B6903F00303002B03D0786800F0B1F9DB
:10248C0005E0786800F0A4F9786800F0B3F97B688F
:10249C0000221A777B681B681B6903F00403042B6A
:1024AC0022D17B681B68DB6803F00403042B1BD16F
:1024BC007B681B686FF004021A617B6802221A7732
:1024CC007B681B689B6903F44073002B03D078680E
:1024DC0000F087F905E0786800F07AF9786800F088
:1024EC0089F97B6800221A777B681B681B6903F0EB
:1024FC000803082B22D17B681B68DB6803F00803F8
:10250C00082B1BD17B681B686FF008021A617B6873
:10251C0004221A777B681B68DB6903F00303002B2A
:10252C0003D0786800F05DF905E0786800F050F9A8
:10253C00786800F05FF97B6800221A777B681B686B
:10254C001B6903F01003102B22D17B681B68DB681E
:10255C0003F01003102B1BD17B681B686FF010026B
:10256C001A617B6808221A777B681B68DB6903F4A5
:10257C004073002B03D0786800F033F905E07868DD
:10258C0000F026F9786800F035F97B6800221A779C
:10259C007B681B681B6903F00103012B0ED17B6860
:1025AC001B68DB6803F00103012B07D17B681B68F8
:1025BC006FF001021A617868FEF74AFE7B681B68AF
:1025CC001B6903F08003802B0ED17B681B68DB68D2
:1025DC0003F08003802B07D17B681B686FF08002AF
:1025EC001A61786800F067FA7B681B681B6903F056
:1025FC004003402B0ED17B681B68DB6803F0400363
:10260C00402B07D17B681B686FF040021A61786819
:10261C0000F0F9F87B681B681B6903F02003202B82
:10262C000ED17B681B68DB6803F02003202B07D1DD
:10263C007B681B686FF020021A61786800F032FA30
:10264C0000BF0837BD4680BD80B584B000AF786050
:10265C0039607B6893F83C30012B01D10223B3E045
:10266C007B68012283F83C207B68022283F83D20A2
:10267C007B681B689B68FB60FB6823F07703FB603F
:10268C00FB6823F47F43FB607B681B68FA689A60E5
:10269C003B681B68B3F5005F3ED0B3F5005F00F2FA
:1026AC008780B3F5805F00F08580B3F5805F7FD8BD
:1026BC00702B1AD0702B7BD8602B50D0602B77D816
:1026CC00502B3CD0502B73D8402B58D0402B6FD86C
:1026DC00302B64D0302B6BD8202B60D0202B67D8BC
:1026EC00002B5CD0102B5AD062E07B6818683B68DA
:1026FC0099683B685A683B68DB6800F05CF97B685A
:10270C001B689B68FB60FB6843F07703FB607B688E
:10271C001B68FA689A604EE07B6818683B68996899
:10272C003B685A683B68DB6800F045F97B681B68BE
:10273C009A687B681B6842F480429A603BE07B6835
:10274C0018683B6859683B68DB681A4600F0BCF8AF
:10275C007B681B685021184600F013F92BE07B684E
:10276C0018683B6859683B68DB681A4600F0DAF871
:10277C007B681B686021184600F003F91BE07B683E
:10278C0018683B6859683B68DB681A4600F09CF88F
:10279C007B681B684021184600F0F3F80BE07B685F
:1027AC001A683B681B681946104600F0EAF802E00C
:1027BC0000BF00E000BF7B68012283F83D207B68EE
:1027CC00002283F83C20002318461037BD4680BDFC
:1027DC0080B483B000AF786000BF0C37BD4680BCBE
:1027EC00704780B483B000AF786000BF0C37BD4633
:1027FC0080BC704780B483B000AF786000BF0C37EA
:10280C00BD4680BC704780B483B000AF786000BF19
:10281C000C37BD4680BC704780B485B000AF786083
:10282C0039607B681B68FB607B68254A934207D044
:10283C007B68B3F1804F03D07B68224A934208D166
:10284C00FB6823F07003FB603B685B68FA6813431A
:10285C00FB607B681A4A934207D07B68B3F1804FC8
:10286C0003D07B68174A934208D1FB6823F440736A
:10287C00FB603B68DB68FA681343FB60FB6823F082
:10288C0080023B685B691343FB607B68FA681A60E3
:10289C003B689A687B68DA623B681A687B689A6264
:1028AC007B68074A934203D13B681A697B681A63B9
:1028BC007B6801225A6100BF1437BD4680BC70474B
:1028CC00002C01400004004080B487B000AFF860D9
:1028DC00B9607A60FB681B6A7B61FB681B6A23F03A
:1028EC000102FB681A62FB689B693B613B6923F040
:1028FC00F0033B617B681B013A6913433B617B69C5
:10290C0023F00A037B617A69BB6813437B61FB6824
:10291C003A699A61FB687A691A6200BF1C37BD4636
:10292C0080BC704780B487B000AFF860B9607A6043
:10293C00FB681B6A23F01002FB681A62FB689B6938
:10294C007B61FB681B6A3B617B6923F470437B6191
:10295C007B681B037A6913437B613B6923F0A003FB
:10296C003B61BB681B013A6913433B61FB687A69A5
:10297C009A61FB683A691A6200BF1C37BD4680BC7D
:10298C00704780B485B000AF786039607B689B6815
:10299C00FB60FB6823F07003FB603A68FB68134331
:1029AC0043F00703FB607B68FA689A6000BF14373A
:1029BC00BD4680BC704780B487B000AFF860B9608A
:1029CC007A603B60FB689B687B617B6923F47F4387
:1029DC007B613B681A027B681A43BB6813437A69B4
:1029EC0013437B61FB687A699A6000BF1C37BD4654
:1029FC0080BC704780B485B000AF786039607B686C
:102A0C0093F83C30012B01D1022341E07B68012279
:102A1C0083F83C207B68022283F83D207B681B688E
:102A2C005B68FB607B681B689B68BB60FB6823F082
:102A3C007003FB603B681B68FA681343FB607B68A0
:102A4C001B68FA685A607B681B68144A934209D069
:102A5C007B681B68B3F1804F04D07B681B68104AFD
:102A6C0093420CD1BB6823F08003BB603B685B686E
:102A7C00BA681343BB607B681B68BA689A607B6852
:102A8C00012283F83D207B68002283F83C20002340
:102A9C0018461437BD4680BC704700BF002C01405F
:102AAC000004004080B483B000AF786000BF0C37E6
:102ABC00BD4680BC704780B483B000AF786000BF67
:102ACC000C37BD4680BC704770B500260C4D0D4CC4
:102ADC00641BA410A64209D100F022F800260A4D6E
:102AEC000A4C641BA410A64205D170BD55F8043BDA
:102AFC0098470136EEE755F8043B98470136F2E764
:102B0C00642B0008642B0008642B0008682B000859
:102B1C0003460244934200D1704703F8011BF9E7C6
:102B2C00F8B500BFF8BC08BC9E467047F8B500BFAE
:082B3C00F8BC08BC9E4670477E
:102B440002030405060708090A0B0C0D0E0F1010EA
:102B54000000000000000000010203040607080949
:042B64003101000833
:042B68000D01000853
:102B6C00010000000500000003000000020000004E
:102B7C00050000000200000003000000000000003F
:102B8C00020000000024F40010000000010000000E
:040000050800148952
:00000001FF
