:020000040800F2
:10000000002800200D0D0008B10C0008B70C0008F6
:10001000BD0C0008C30C0008C90C0008000000005B
:10002000000000000000000000000000CF0C0008ED
:10003000DB0C000800000000E70C0008F30C0008CF
:10004000550D0008550D0008550D0008550D000808
:10005000550D0008550D0008550D0008550D0008F8
:10006000550D0008550D0008550D0008550D0008E8
:10007000550D0008550D0008550D0008550D0008D8
:10008000550D0008550D0008550D0008550D0008C8
:10009000550D0008550D0008550D0008550D0008B8
:1000A000550D0008550D0008550D0008550D0008A8
:1000B000550D0008550D000800000000550D000802
:1000C000550D00080000000000000000550D00085C
:1000D00000000000550D0008550D0008000000004C
:1000E000550D0008550D0008550D000800000000D2
:1000F0000000000000000000000000000000000000
:0C01000000000000000000005FF808F1A3
:10010C0010B5054C237833B9044B13B10448AFF345
:10011C0000800123237010BD0C00002000000000A3
:10012C007C1B000808B5034B1BB103490348AFF314
:10013C00008008BD00000000100000207C1B00089F
:10014C0080B582B000AF7860C7F800C07B68092B1F
:10015C0000F2808101A252F823F000BF9101000847
:10016C00D90100082102000869020008B102000848
:10017C00F90200084103000889030008D1030008B4
:10018C001904000800224021C64801F0C5F80022DD
:10019C002021C44801F0C0F800221021C14801F010
:1001AC00BBF800220821BF4801F0B6F80022042158
:1001BC00BC4801F0B1F800220221BA4801F0ACF8B9
:1001CC0001220121B74801F0A7F867E10122402183
:1001DC00B44801F0A1F800222021B24801F09CF8AB
:1001EC0000221021AF4801F097F801220821AD48F8
:1001FC0001F092F801220421AA4801F08DF80122A5
:10020C000221A84801F088F801220121A54801F03B
:10021C0083F843E100224021A24801F07DF800223E
:10022C002021A04801F078F8012210219D4801F00E
:10023C0073F8002208219B4801F06EF8002204217B
:10024C00984801F069F801220221964801F064F8FF
:10025C0000220121934801F05FF81FE100224021A8
:10026C00904801F059F8002220218E4801F054F8F2
:10027C00002210218B4801F04FF8002208218948F8
:10028C0001F04AF801220421864801F045F80122C8
:10029C000221844801F040F800220121814801F03C
:1002AC003BF8FBE0012240217E4801F035F80022AA
:1002BC0020217C4801F030F800221021794801F00F
:1002CC002BF801220821774801F026F8012204219D
:1002DC00744801F021F800220221724801F01CF848
:1002EC00002201216F4801F017F8D7E000224021CD
:1002FC006C4801F011F8012220216A4801F00CF839
:10030C0000221021674801F007F8002208216548F7
:10031C0001F002F801220421624800F0FDFF0022E6
:10032C000221604800F0F8FF002201215D4800F036
:10033C00F3FFB3E0002240215A4800F0EDFF012208
:10034C002021584800F0E8FF00221021554800F009
:10035C00E3FF00220821534800F0DEFF00220421B5
:10036C00504800F0D9FF002202214E4800F0D4FF83
:10037C00002201214B4800F0CFFF8FE000224021EA
:10038C00484800F0C9FF00222021464800F0C4FF75
:10039C0000221021434800F0BFFF012208214148F0
:1003AC0000F0BAFF012204213E4800F0B5FF012203
:1003BC0002213C4800F0B0FF01220121394800F035
:1003CC00ABFF6BE000224021364800F0A5FF002275
:1003DC002021344800F0A0FF00221021314800F009
:1003EC009BFF002208212F4800F096FF00220421D9
:1003FC002C4800F091FF002202212A4800F08CFFCB
:10040C0000220121274800F087FF47E0002240210D
:10041C00244800F081FF00222021224800F07CFFBC
:10042C00002210211F4800F077FF002208211D48F0
:10043C0000F072FF012204211A4800F06DFF002227
:10044C000221184800F068FF00220121154800F035
:10045C0063FF23E001224021124800F05DFF0122DE
:10046C002021104800F058FF012210210D4800F007
:10047C0053FF012208210B4800F04EFF01220421FA
:10048C00084800F049FF01220221064800F044FF11
:10049C0001220121034800F03FFF00BF00BF0837D5
:1004AC00BD4680BD000C014080B58EB000AF07F199
:1004BC0040037B6000F04AFC00F03AFB00F074FB58
:1004CC0001237B6300233B630023FB620523BB6298
:1004DC0000237B6200233B620023FB610023BB6192
:1004EC0003237B6100233B610023FB600123BB6082
:1004FC007B6B002B2BD001222021904800F00CFFAD
:10050C00002240218D4800F007FF002280218B48FB
:10051C0000F002FFBB6A002B08DD3B1D9C46B86A4D
:10052C00FFF70EFEBB6A013BBB626DE0BB6A002BA2
:10053C006AD13B1D9C460020FFF702FE00237B6323
:10054C0000233B630123FB6203233B625CE03B6BB8
:10055C00002B2BD000222021784800F0DDFE012258
:10056C004021764800F0D8FE00228021734800F02C
:10057C00D3FE7B6A002B08DD3B1D9C46786AFFF797
:10058C00DFFD7B6A013B7B623EE07B6A002B3BD14B
:10059C003B1D9C460020FFF7D3FD01237B6300230A
:1005AC003B630023FB620523BB622DE0FB6A002B3F
:1005BC002AD000222021614800F0AEFE002240210A
:1005CC005E4800F0A9FE012280215C4800F0A4FEE8
:1005DC003B6A002B08DD3B1D9C46386AFFF7B0FDDB
:1005EC003B6A013B3B620FE03B6A002B0CD13B1D8D
:1005FC009C460020FFF7A4FD00237B6301233B6393
:10060C000023FB6202237B623B69002B2ED001226C
:10061C004FF40071494800F07FFE00224FF48061D6
:10062C00464800F079FE00224FF40061434800F088
:10063C0073FEFB69002B08DD3B1D9C46F86900F03E
:10064C007FF8FB69013BFB6173E0FB69002B70D108
:10065C003B1D9C46002000F073F800233B610023F7
:10066C00FB600123BB6003237B6162E0FB68002B12
:10067C002ED000224FF40071304800F04DFE0122C4
:10068C004FF480612D4800F047FE00224FF40061CA
:10069C002A4800F041FEBB69002B08DD3B1D9C463F
:1006AC00B86900F04DF8BB69013BBB6141E0BB6927
:1006BC00002B3ED13B1D9C46002000F041F801234D
:1006CC003B610023FB600023BB600523FB6130E032
:1006DC00BB68002B2DD000224FF40071174800F09E
:1006EC001BFE00224FF48061144800F015FE01221D
:1006FC004FF40061114800F00FFE7B69002B08DD00
:10070C003B1D9C46786900F01BF87B69013B7B61C3
:10071C000FE07B69002B0CD13B1D9C46002000F0A8
:10072C000FF800233B610123FB600023BB60022315
:10073C00BB614FF47A7000F06BFBD9E60008014006
:10074C0080B582B000AF7860C7F800C07B68092B19
:10075C0000F2BE8101A252F823F000BF91070008FD
:10076C00E5070008390800088D080008E1080008B2
:10077C003509000889090008DD090008310A00085C
:10078C00850A000800224FF40051D04800F0C4FD47
:10079C0000224FF48051CD4800F0BEFD00224FF4F2
:1007AC000061CA4800F0B8FD00224FF48061C748D0
:1007BC0000F0B2FD00224FF40071C44800F0ACFD13
:1007CC0000224FF48071C14800F0A6FD0122802167
:1007DC00BE4800F0A1FDA5E101224FF40051BB4839
:1007EC0000F09AFD00224FF48051B84800F094FDBF
:1007FC0000224FF40061B54800F08EFD01224FF449
:10080C008061B24800F088FD01224FF40071AF48BE
:10081C0000F082FD01224FF48071AC4800F07CFDA9
:10082C0001228021A94800F077FD7BE100224FF4E2
:10083C000051A64800F070FD00224FF48051A348EF
:10084C0000F06AFD01224FF40061A04800F064FD45
:10085C0000224FF480619D4800F05EFD00224FF4B1
:10086C0000719A4800F058FD01224FF480719748AE
:10087C0000F052FD00228021944800F04DFD51E122
:10088C0000224FF40051914800F046FD00224FF435
:10089C0080518E4800F040FD00224FF400618B48DF
:1008AC0000F03AFD00224FF48061884800F034FDDE
:1008BC0001224FF40071854800F02EFD01224FF407
:1008CC008071824800F028FD002280217F4800F0D2
:1008DC0023FD27E101224FF400517C4800F01CFD60
:1008EC0000224FF48051794800F016FD00224FF49D
:1008FC000061764800F010FD01224FF480617348CE
:10090C0000F00AFD01224FF40071704800F004FD64
:10091C0000224FF480716D4800F0FEFC0022802113
:10092C006A4800F0F9FCFDE000224FF400516748E2
:10093C0000F0F2FC01224FF48051644800F0ECFC12
:10094C0000224FF40061614800F0E6FC00224FF4F5
:10095C0080615E4800F0E0FC01224FF400715B48BE
:10096C0000F0DAFC00224FF48071584800F0D4FCFF
:10097C0000228021554800F0CFFCD3E000224FF438
:10098C000051524800F0C8FC01224FF480514F48EE
:10099C0000F0C2FC00224FF400614C4800F0BCFC9B
:1009AC0000224FF48061494800F0B6FC00224FF45D
:1009BC000071464800F0B0FC00224FF480714348AF
:1009CC0000F0AAFC00228021404800F0A5FCA9E020
:1009DC0000224FF400513D4800F09EFC00224FF4E1
:1009EC0080513A4800F098FC00224FF400613748DF
:1009FC0000F092FC01224FF48061344800F08CFC32
:100A0C0001224FF40071314800F086FC01224FF4B2
:100A1C0080712E4800F080FC012280212B4800F0D0
:100A2C007BFC7FE000224FF40051284800F074FC5E
:100A3C0000224FF48051254800F06EFC00224FF448
:100A4C000061224800F068FC00224FF480611F48CE
:100A5C0000F062FC00224FF400711C4800F05CFCBA
:100A6C0000224FF48071194800F056FC00228021BE
:100A7C00164800F051FC55E000224FF40051134889
:100A8C0000F04AFC00224FF48051104800F044FC66
:100A9C0000224FF400610D4800F03EFC00224FF4A0
:100AAC0080610A4800F038FC01224FF400710748BD
:100ABC0000F032FC00224FF48071044800F02CFC52
:100ACC0000228021014800F027FC2BE0000C0140A3
:100ADC0001224FF40051154800F01EFC01224FF486
:100AEC008051124800F018FC01224FF400610F48AD
:100AFC0000F012FC01224FF480610C4800F00CFC59
:100B0C0001224FF40071094800F006FC01224FF459
:100B1C008071064800F000FC01228021034800F09F
:100B2C00FBFB00BF00BF0837BD4680BD000C014079
:100B3C0080B590B000AF07F11803282200211846A9
:100B4C0001F00EF83B1D00221A605A609A60DA60C0
:100B5C001A610223BB610123BB621023FB620023D9
:100B6C007B6307F11803184600F0EEFB0346002BDD
:100B7C0001D000F06FF80F237B600023BB600023D3
:100B8C00FB6000233B6100237B613B1D0021184669
:100B9C0000F05CFE0346002B01D000F05BF800BFB8
:100BAC004037BD4680BD000080B586B000AF07F170
:100BBC00080300221A605A609A60DA60224B9B6923
:100BCC00214A43F0040393611F4B9B6903F0040318
:100BDC007B607B681C4B9B691B4A43F00803936149
:100BEC00194B9B6903F008033B603B6800224FF4F0
:100BFC006E61164800F090FB002243F6FF7114481A
:100C0C0000F08AFB4FF46E63BB600123FB60002392
:100C1C003B6102237B6107F1080319460B4800F086
:100C2C00FFF943F6FF73BB600123FB6000233B61BC
:100C3C0002237B6107F108031946054800F0F0F91F
:100C4C0000BF1837BD4680BD0010024000080140AF
:100C5C00000C014080B400AF72B600BFFEE700008C
:100C6C0080B483B000AF0E4B9B690D4A43F0010377
:100C7C0093610B4B9B6903F001037B607B68084B12
:100C8C00DB69074A43F08053D361054BDB6903F002
:100C9C0080533B603B6800BF0C37BD4680BC70473F
:100CAC000010024080B400AFFEE780B400AFFEE756
:100CBC0080B400AFFEE780B400AFFEE780B400AFB5
:100CCC00FEE780B400AF00BFBD4680BC704780B467
:100CDC0000AF00BFBD4680BC704780B400AF00BF02
:100CEC00BD4680BC704780B500AF00F075F800BF02
:100CFC0080BD80B400AF00BFBD4680BC7047000013
:100D0C000C480D490D4A002302E0D458C45004335A
:100D1C00C4188C42F9D30A4A0A4C002301E0136030
:100D2C000432A242FBD3FFF7E4FF00F0F5FEFFF71D
:100D3C00BBFB7047000000200C000020BC1B00080F
:100D4C000C0000202C000020FEE7000080B500AF56
:100D5C00084B1B68074A43F010031360032000F094
:100D6C002BF90F2000F008F8FFF77AFF0023184644
:100D7C0080BD00BF0020024080B582B000AF78601B
:100D8C00124B1A68124B1B7819464FF47A73B3FB4B
:100D9C00F1F3B2FBF3F3184600F035F90346002BE0
:100DAC0001D001230EE07B680F2B0AD80022796852
:100DBC004FF0FF3000F00BF9064A7B6813600023FC
:100DCC0000E0012318460837BD4680BD0000002016
:100DDC00080000200400002080B400AF054B1B78F5
:100DEC001A46054B1B681344034A136000BFBD46EB
:100DFC0080BC7047080000202800002080B400AFA1
:100E0C00024B1B681846BD4680BC7047280000206A
:100E1C0080B584B000AF7860FFF7F0FFB8607B68F6
:100E2C00FB60FB68B3F1FF3F05D00A4B1B781A46F9
:100E3C00FB681344FB6000BFFFF7E0FF0246BB6892
:100E4C00D31AFA689A42F7D800BF00BF1037BD46D4
:100E5C0080BD00BF0800002080B485B000AF786072
:100E6C007B6803F00703FB600C4BDB68BB60BA6864
:100E7C004FF6FF031340BB60FB681A02BB681343B9
:100E8C0043F0BF6343F40033BB60044ABB68D360D8
:100E9C0000BF1437BD4680BC704700BF00ED00E0BA
:100EAC0080B400AF044BDB681B0A03F00703184641
:100EBC00BD4680BC704700BF00ED00E080B483B03D
:100ECC0000AF03463960FB7197F90730002B0ADB42
:100EDC003B68DAB20C4997F907301201D2B20B44D5
:100EEC0083F800230AE03B68DAB20849FB7903F087
:100EFC000F03043B1201D2B20B441A7600BF0C371D
:100F0C00BD4680BC704700BF00E100E000ED00E092
:100F1C0080B489B000AFF860B9607A60FB6803F008
:100F2C000703FB61FB69C3F10703042B28BF0423F0
:100F3C00BB61FB690433062B02D9FB69033B00E060
:100F4C0000237B614FF0FF32BB6902FA03F3DA43F3
:100F5C00BB681A407B699A404FF0FF317B6901FAFC
:100F6C0003F3D9437B680B40134318462437BD4623
:100F7C0080BC704780B582B000AF78607B68013B65
:100F8C00B3F1807F01D301230FE00A4A7B68013B58
:100F9C0053600F214FF0FF30FFF790FF054B0022FD
:100FAC009A60044B07221A60002318460837BD4686
:100FBC0080BD00BF10E000E080B582B000AF78606B
:100FCC007868FFF749FF00BF0837BD4680BD80B584
:100FDC0086B000AF0346B9607A60FB7300237B6177
:100FEC00FFF75EFF78617A68B9687869FFF790FF60
:100FFC00024697F90F3011461846FFF75FFF00BF06
:10100C001837BD4680BD80B582B000AF7860786877
:10101C00FFF7B0FF034618460837BD4680BD0000F9
:10102C0080B48BB000AF7860396000237B62002302
:10103C003B6261E101227B6A02FA03F3FB613B68CC
:10104C001B68FA691340BB61BA69FB699A4240F0AC
:10105C0050813B685B68974A93425ED0954A9342B5
:10106C0075D8954A934258D0934A93426FD8934A75
:10107C00934252D0914A934269D8914A93424CD0B0
:10108C008F4A934263D88F4A934246D08D4A9342FB
:10109C005DD8122B2AD8122B59D801A252F823F062
:1010AC002711000801110008131100085511000840
:1010BC005B1100085B1100085B1100085B11000854
:1010CC005B1100085B1100085B1100085B11000844
:1010DC005B1100085B1100085B1100085B11000834
:1010EC005B110008091100081D110008764A934293
:1010FC0013D02CE03B68DB683B6229E03B68DB6883
:10110C0004333B6224E03B68DB6808333B621FE03E
:10111C003B68DB680C333B621AE03B689B68002B36
:10112C0002D104233B6213E03B689B68012B05D181
:10113C0008233B627B68FA691A6109E008233B6269
:10114C007B68FA695A6103E000233B6200E000BF50
:10115C00BB69FF2B01D87B6801E07B6804337B61A2
:10116C00BB69FF2B02D87B6A9B0002E07B6A083BC1
:10117C009B003B617B691A680F213B6901FA03F301
:10118C00DB431A40396A3B6901FA03F31A437B6962
:10119C001A603B685B6803F08053002B00F0A98059
:1011AC004A4B9B69494A43F001039361474B9B6946
:1011BC0003F00103BB60BB68454A7B6A9B080233A2
:1011CC0052F82330FB607B6A03F003039B000F2271
:1011DC0002FA03F3DB43FA681340FB607B683D4A79
:1011EC0093420DD07B683C4A934207D07B683B4AC4
:1011FC00934201D1022304E0032302E0012300E027
:10120C0000237A6A02F0030292009340FA681343B7
:10121C00FB602F497B6A9B080233FA6841F8232054
:10122C003B685B6803F48033002B06D02C4B1A68A8
:10123C002B49BB6913430B6006E0294B1A68BB6949
:10124C00DB43274913400B603B685B6803F40033B6
:10125C00002B06D0224B5A682149BB6913434B60C3
:10126C0006E01F4B5A68BB69DB431D4913404B60BA
:10127C003B685B6803F48013002B06D0184B9A680C
:10128C001749BB6913438B6006E0154B9A68BB6921
:10129C00DB43134913408B603B685B6803F400131A
:1012AC00002B1FD00E4BDA680D49BB691343CB6082
:1012BC001FE000BF000032100000311000002210AF
:1012CC00000021100000121000001110001002404C
:1012DC000000014000080140000C014000100140DA
:1012EC00000401400B4BDA68BB69DB43094913402E
:1012FC00CB607B6A01337B623B681A687B6A22FA9B
:10130C0003F3002B7FF496AE00BF00BF2C37BD4615
:10131C0080BC70470004014080B483B000AF78609B
:10132C000B467B8013467B707B78002B03D07A882E
:10133C007B681A6103E07B881A047B681A6100BF22
:10134C000C37BD4680BC704780B586B000AF786066
:10135C007B68002B01D1012372E27B681B6803F0D0
:10136C000103002B00F08780924B5B6803F00C03A9
:10137C00042B0CD08F4B5B6803F00C03082B12D1A1
:10138C008C4B5B6803F48033B3F5803F0BD1894BF6
:10139C001B6803F40033002B6CD07B685B68002B5C
:1013AC0068D101234CE27B685B68B3F5803F06D1C2
:1013BC00804B1B687F4A43F4803313602EE07B68BC
:1013CC005B68002B0CD17B4B1B687A4A23F480336F
:1013DC001360784B1B68774A23F4802313601DE05D
:1013EC007B685B68B3F5A02F0CD1724B1B68714AFC
:1013FC0043F4802313606F4B1B686E4A43F48033B5
:10140C0013600BE06B4B1B686A4A23F48033136048
:10141C00684B1B68674A23F4802313607B685B6806
:10142C00002B13D0FFF7EAFC386108E0FFF7E6FC6D
:10143C0002463B69D31A642B01D9032300E25D4BAE
:10144C001B6803F40033002BF0D014E0FFF7D6FC3C
:10145C00386108E0FFF7D2FC02463B69D31A642BD3
:10146C0001D90323ECE1534B1B6803F40033002B2D
:10147C00F0D100E000BF7B681B6803F00203002B77
:10148C0063D04C4B5B6803F00C03002B0BD0494B27
:10149C005B6803F00C03082B1CD1464B5B6803F410
:1014AC008033002B16D1434B1B6803F00203002B37
:1014BC0005D07B681B69012B01D00123C0E13D4B9A
:1014CC001B6823F0F8027B685B69DB003949134326
:1014DC000B603AE07B681B69002B20D0364B012255
:1014EC001A60FFF78BFC386108E0FFF787FC0246B7
:1014FC003B69D31A022B01D90323A1E12D4B1B68A5
:10150C0003F00203002BF0D02A4B1B6823F0F802E7
:10151C007B685B69DB00274913430B6015E0264BA6
:10152C0000221A60FFF76AFC386108E0FFF766FCDE
:10153C0002463B69D31A022B01D9032380E11D4BD0
:10154C001B6803F00203002BF0D17B681B6803F0CF
:10155C000803002B3AD07B689B69002B19D0174BE2
:10156C0001221A60FFF74AFC386108E0FFF746FCDD
:10157C0002463B69D31A022B01D9032360E10D4BC0
:10158C005B6A03F00203002BF0D0012000F0A6FAF6
:10159C001CE00A4B00221A60FFF730FC38610FE0A8
:1015AC00FFF72CFC02463B69D31A022B08D9032304
:1015BC0046E100BF0010024000004242800442425B
:1015CC00924B5B6A03F00203002BE9D17B681B682A
:1015DC0003F00403002B00F0A6800023FB758B4B5B
:1015EC00DB6903F08053002B0DD1884BDB69874AF4
:1015FC0043F08053D361854BDB6903F08053BB60B0
:10160C00BB680123FB75824B1B6803F48073002BB2
:10161C0018D17F4B1B687E4A43F480731360FFF72D
:10162C00EDFB386108E0FFF7E9FB02463B69D31A92
:10163C00642B01D9032303E1754B1B6803F48073FE
:10164C00002BF0D07B68DB68012B06D16F4B1B6A3B
:10165C006E4A43F0010313622DE07B68DB68002BBC
:10166C000CD16A4B1B6A694A23F001031362674B66
:10167C001B6A664A23F0040313621CE07B68DB6878
:10168C00052B0CD1614B1B6A604A43F004031362B7
:10169C005E4B1B6A5D4A43F0010313620BE05B4B2C
:1016AC001B6A5A4A23F001031362584B1B6A574AB0
:1016BC0023F0040313627B68DB68002B15D0FFF763
:1016CC009DFB38610AE0FFF799FB02463B69D31A90
:1016DC0041F28832934201D90323B1E04B4B1B6A90
:1016EC0003F00203002BEED014E0FFF787FB386108
:1016FC000AE0FFF783FB02463B69D31A41F28832BA
:10170C00934201D903239BE0404B1B6A03F0020375
:10171C00002BEED1FB7D012B05D13C4BDB693B4A09
:10172C0023F08053D3617B68DB69002B00F087804A
:10173C00364B5B6803F00C03082B61D07B68DB69CC
:10174C00022B46D1334B00221A60FFF757FB38614E
:10175C0008E0FFF753FB02463B69D31A022B01D971
:10176C0003236DE0294B1B6803F00073002BF0D1B1
:10177C007B681B6AB3F5803F08D1244B5B6823F46C
:10178C0000327B689B68214913434B601F4B5B689D
:10179C0023F474127B68196A7B685B6A0B431B49E0
:1017AC0013434B601B4B01221A60FFF727FB386178
:1017BC0008E0FFF723FB02463B69D31A022B01D941
:1017CC0003233DE0114B1B6803F00073002BF0D09A
:1017DC0035E0104B00221A60FFF710FB386108E06F
:1017EC00FFF70CFB02463B69D31A022B01D90323EA
:1017FC0026E0064B1B6803F00073002BF0D11EE0B3
:10180C007B68DB69012B07D1012319E00010024032
:10181C0000700040600042420B4B5B68FB60FB6851
:10182C0003F480327B681B6A9A4206D1FB6803F48E
:10183C0070127B685B6A9A4201D0012300E000239E
:10184C0018461837BD4680BD0010024080B584B0E4
:10185C0000AF786039607B68002B01D10123D0E0A8
:10186C006A4B1B6803F007033A689A4210D9674B1E
:10187C001B6823F0070265493B6813430B60634BFD
:10188C001B6803F007033A689A4201D00123B8E0C1
:10189C007B681B6803F00203002B20D07B681B685D
:1018AC0003F00403002B05D0594B5B68584A43F4F2
:1018BC00E06353607B681B6803F00803002B05D0C2
:1018CC00534B5B68524A43F460535360504B5B6814
:1018DC0023F0F0027B689B684D4913434B607B6897
:1018EC001B6803F00103002B40D07B685B68012B65
:1018FC0007D1474B1B6803F40033002B15D1012390
:10190C007FE07B685B68022B07D1414B1B6803F0BF
:10191C000073002B09D1012373E03D4B1B6803F0CE
:10192C000203002B01D101236BE0394B5B6823F0E0
:10193C0003027B685B68364913434B60FFF75EFA22
:10194C00F8600AE0FFF75AFA0246FB68D31A41F234
:10195C008832934201D9032353E02D4B5B6803F08B
:10196C000C027B685B689B009A42EBD1274B1B688F
:10197C0003F007033A689A4210D2244B1B6823F0F9
:10198C00070222493B6813430B60204B1B6803F092
:10199C0007033A689A4201D0012332E07B681B6846
:1019AC0003F00403002B08D0194B5B6823F4E062AE
:1019BC007B68DB68164913434B607B681B6803F03C
:1019CC000803002B09D0124B5B6823F460527B6830
:1019DC001B69DB000E4913434B6000F021F80246F3
:1019EC000B4B5B681B0903F00F030A49CB5C22FA13
:1019FC0003F3094A1360094B1B681846FFF7BCF93F
:101A0C00002318461037BD4680BD00BF00200240A1
:101A1C0000100240A41B000800000020040000205D
:101A2C0090B48AB000AF294B3C1D0FCB84E80F005B
:101A3C0040F201233B800023FB610023BB610023A8
:101A4C007B6200237B6100233B62214B5B68FB6163
:101A5C00FB6903F00C03042B02D0082B03D02BE002
:101A6C001C4B3B622BE0FB699B0C03F00F032833F0
:101A7C003B4413F8243C7B61FB6903F48033002B5B
:101A8C0012D0134B5B685B0C03F0010328333B440F
:101A9C0013F8283CBB617B690E4A03FB02F2BB695D
:101AAC00B2FBF3F37B6204E07B690B4A02FB03F3AA
:101ABC007B627B6A3B6202E0064B3B6200BF3B6A87
:101ACC0018462837BD4690BC704700BF941B0008D1
:101ADC000010024000127A0000093D0080B485B06D
:101AEC0000AF78600A4B1B680A4AA2FB03235B0A0F
:101AFC007A6802FB03F3FB6000BFFB685A1EFA60B6
:101B0C00002BF9D100BF00BF1437BD4680BC704715
:101B1C0000000020D34D621070B500260C4D0D4C0A
:101B2C00641BA410A64209D100F022F800260A4D2D
:101B3C000A4C641BA410A64205D170BD55F8043B99
:101B4C0098470136EEE755F8043B98470136F2E723
:101B5C00B41B0008B41B0008B41B0008B81B000819
:101B6C0003460244934200D1704703F8011BF9E786
:101B7C00F8B500BFF8BC08BC9E467047F8B500BF6E
:081B8C00F8BC08BC9E4670473E
:101B940002030405060708090A0B0C0D0E0F1010AA
:101BA4000000000000000000010203040607080909
:041BB40031010008F3
:041BB8000D01000813
:0C1BBC000024F4001000000001000000F4
:0400000508000D0DD5
:00000001FF
